:020000040000FA
:1008000010EF04F081B01EEF04F081B224EF04F089
:1008100081B452EF04F081B660EF04F002EF04F00F
:10082000936AFF0E936E946A956A000E946E956EAD
:100830000F0EC16E826A836A02EF04F0000E826EB0
:10084000000E836E02EF04F0FF0E826EFF0E836EC9
:1008500066EC04F066EC04F066EC04F066EC04F080
:1008600066EC04F066EC04F066EC04F066EC04F070
:1008700066EC04F0000E826E000E836E66EC04F0EF
:1008800066EC04F066EC04F066EC04F066EC04F050
:1008900066EC04F066EC04F066EC04F066EC04F040
:1008A00002EF04F0FF0E826EFF0E836E66EC04F022
:1008B000000E826E000E836E66EC04F002EF04F010
:1008C000FF0E826EFF0E836E02EF04F0880E026E42
:1008D000000E016E0000000000000000000000009B
:1008E0000000012E6AEF04F0022E68EF04F01200FF
:00000001FF
