:04080000B7EF7FF0DF
:10FF6E00000E946E000E00010001FC6F000E0001E9
:10FF7E00FD6F140E00010001FC5D000E0001FD5925
:10FF8E00D8A001D001D001D032D08270000E000175
:10FF9E000001FE6F000E0001FF6FF90E000100015F
:10FFAE00FE5D060E0001FF59D8A001D001D001D090
:10FFBE000FD000010001FE4BFF2BF90E00010001D6
:10FFCE00FE5D060E0001FF59D8A001D001D0F1D779
:10FFDE0000010001FC4BFD2B140E00010001FC5D25
:10FFEE00000E0001FD59D8A001D001D0CED700EFF0
:02FFFE0004F00D
:00000001FF
