:040800000CEF04F005
:10080800FACF26F1FBCF27F1E9CF28F1D0ED0BF095
:1008180000EE00F010EE04F014EC04F016EF08F00F
:0E082800EE6AE550E150FCE1E250FAE1120008
:101000000050574D2E43202020202020202020203B
:1010100020202020200050574D202020202020205C
:10102000202020202020202020200000000E926E72
:101030009368000E946E000E956E000E966E010180
:10104000016F0F0EC16E0101015137EC0CF001016F
:10105000016F000E01010101046F01010151010145
:10106000026F000E01010101036F0101025180ECCA
:101070000CF00101016F000E01010101006F01017F
:101080000151130E01010101006501D001D001D011
:101090001BD0010E010101010025F66EF76A100E4A
:1010A000F722F86A000EF82208000101F5CF15F1C9
:1010B00028EC0DF001010101002B130E01010101CB
:1010C000006501D001D0E5D70101016F000E0101DB
:1010D0000101046F010101510101026F010E0101C3
:1010E0000101036F0101025180EC0CF00101016F5D
:1010F000000E01010101006F01010151130E0101F8
:101100000101006501D001D001D01BD0160E0101F4
:1011100001010025F66EF76A100EF722F86A000E3C
:10112000F82208000101F5CF15F128EC0DF00101BE
:101130000101002B130E01010101006501D001D056
:10114000E5D7640E01010101076F000E0101086F70
:10115000C2EC0CF0D59A0101016F880ED56E010129
:101160000151D58EF28AF184F28C0101016F810E5A
:10117000CD6E01010151CD809D809F80F28CCD927A
:10118000F28E000E006E000E016E81A001D001D023
:1011900004D0640E026E000E036E81A201D001D055
:1011A00004D0E80E026E030E036E81A401D001D0BC
:1011B00004D0D00E026E070E036E81A601D001D0BE
:1011C00004D0B80E026E0B0E036E81A801D001D0C0
:1011D00004D0A00E026E0F0E036E81AA01D001D0C2
:1011E00004D0880E026E130E036E81AC01D001D0C4
:1011F00004D0700E026E170E036E81AE01D001D0C6
:1012000004D0AC0E026E260E036E0101016F070EB4
:1012100001010101046F010101510101026F000E82
:1012200001010101036F0101025180EC0CF0010189
:10123000016F030E01010101086F0101015101015C
:10124000026F050E01010101076F01010251010149
:1012500000C003F1010101C004F101010101056BAE
:101260000101066B48EC0AF00101016F070E010154
:101270000101046F010101510101026F010E010121
:101280000101036F0101025180EC0CF00101016FBB
:10129000020E01010101086F010101510101026FFC
:1012A000050E01010101076F01010251010102C098
:1012B00003F1010103C004F101010101056B01010A
:1012C000066B48EC0AF061D70CEF04F00101236FC4
:1012D000000E010101011E6F0101235101010101F5
:1012E0001CAF01D001D018D0010101011C1F010168
:1012F0001B1F01011A1F0101196D000E01011A23A4
:1013000001011B2301011C230101236F010E0101B7
:1013100001011E6F010123510101010118AF01D02C
:1013200001D014D001010101181F0101171F010193
:10133000161F0101156D000E01011623010117236F
:1013400001011823010E010101011E1B000E010104
:1013500001011F6F000E0101206F000E0101216FBE
:10136000000E0101226F01011C5119111A111B11EC
:10137000D8B401D001D06BD00101236F010E01015F
:1013800001011D6F010123510DD00101D890010110
:10139000193701011A3701011B3701011C370101FF
:1013A00001011D2B010101011CAF01D001D0EDD7BE
:1013B0000101D89001011F370101203701012137B8
:1013C0000101223701010101195101010101155DDE
:1013D000010101011A510101010116590101010127
:1013E0001B51010101011759010101011C510101AA
:1013F00001011859D8A001D001D01BD00101010171
:10140000195101010101155F010101011A51010189
:101410000101165B010101011B5101010101175B73
:10142000010101011C5101010101185B01010101D0
:101430001F810101D89001011C3301011B330101FF
:101440001A3301011933010101011D2FB1D7010127
:1014500001011E51D8B401D001D010D00101010109
:10146000221F0101211F0101201F01011F6D000E1C
:101470000101202301012123010122231FC115F1B4
:1014800020C116F121C117F122C118F100D01200BC
:101490000101010106AF01D001D01BD00101146F81
:1014A0002D0E01010101156F0101145128EC0DF001
:1014B00001010101061F0101051F0101041F0101B6
:1014C000036D000E01010423010105230101062320
:1014D0000AD00101146F200E01010101156F0101F5
:1014E000145128EC0DF00101146F000E01010101EF
:1014F000096F01011451090E01010101096501D0B3
:1015000001D001D04ED001010A0E010101010925CF
:10151000E96EEA6A0101010EEA220A0E01010101E7
:10152000196F000E01011A6F000E01011B6F000EF2
:1015300001011C6F03C115F104C116F105C117F1BA
:1015400006C118F10CEC0BF0010101011551EF6E11
:101550000A0E01010101196F000E01011A6F000E40
:1015600001011B6F000E01011C6F03C115F104C1C5
:1015700016F105C117F106C118F166EC09F015C1A5
:1015800003F116C104F117C105F118C106F10101FB
:101590000101092B090E01010101096501D001D0EA
:1015A000B2D707C109F101010101096701D001D0DA
:1015B00001D031D00101010108510101010109638C
:1015C00001D001D00AD00101146F2E0E01010101DA
:1015D000156F0101145128EC0DF009C114F1FF0E33
:1015E0000101142701010A0E01011425E96EEA6ABE
:1015F0000101010EEA22EF50300F01010101156FC8
:1016000028EC0DF001010101090701010101096741
:1016100001D001D0CFD7120001011F6F000E0101D0
:1016200001011D6F01011F510101010118AF01D01E
:1016300001D018D001010101181F0101171F01017C
:10164000161F0101156D000E01011623010117235C
:101650000101182301011F6F010E010101011D6F1E
:1016600001011F51010101011CAF01D001D010D0B7
:10167000010101011C1F01011B1F01011A1F0101B2
:10168000196D000E01011A2301011B2301011C2306
:1016900001011C5119111A111B11D8B401D001D02C
:1016A0005ED001011F6F010E010101011E6F0101DA
:1016B0001F510DD00101D8900101193701011A37CE
:1016C00001011B3701011C37010101011E2B010122
:1016D00001011CAF01D001D0EDD701010101195169
:1016E00001010101155D010101011A510101010111
:1016F0001659010101011B51010101011759010195
:1017000001011C51010101011859D8A001D001D0DB
:1017100018D001010101195101010101155F0101F9
:1017200001011A5101010101165B010101011B5167
:1017300001010101175B010101011C5101010101BE
:10174000185B0101D89001011C3301011B33010119
:101750001A3301011933010101011E2FBED7010106
:1017600001011D51D8B401D001D010D001010101F7
:10177000181F0101171F0101161F0101156D000E31
:1017800001011623010117230101182315C115F1C9
:1017900016C116F117C117F118C118F100D01200C7
:1017A0000600EACF29F1E1CF2AF1E2CF2BF1D9CF20
:1017B0002CF1DACF2DF1F3CF2EF1F4CF2FF1F6CFBC
:1017C00030F1F7CF31F1F8CF32F1F2A401D001D0EE
:1017D00021D0F00ED66ED80ED76E02C024F103C011
:1017E00025F10101241F251F244B252B24C1CEFFE9
:1017F00025C1CFFF004A012A8080808280848086B4
:101800008088808A83808382838483868388838A96
:10181000838CF2949EA001D001D00ED08090809253
:10182000809480968098809A839083928394839604
:101830008398839A839C9E9032C1F8FF31C1F7FF51
:1018400030C1F6FF2FC1F4FF2EC1F3FF2DC1DAFF27
:101850002CC1D9FF2BC1E2FF2AC1E1FF29C1EAFF58
:1018600028C1E9FF27C1FBFF26C1FAFF1100000EC6
:10187000956E83920101036F330E01010101056F23
:101880000101035101EC0DF00101036F320E010162
:101890000101056F0101035101EC0DF00101036F1E
:1018A000280E01010101056F0101035101EC0DF04A
:1018B0000101036F0E0E01010101056F01010351CA
:1018C00001EC0DF00101036F010E01010101056F33
:1018D0000101035101EC0DF00101036F060E01013E
:1018E0000101056F0101035101EC0DF0640E0101CE
:1018F0000101076F000E0101086FC2EC0CF012002D
:1019000001010101036701D001D009D001010101EA
:101910000451800F01010101056F01EC0DF001017F
:1019200001010305D8A401D001D009D001010101B2
:101930000451C00F01010101056F01EC0DF001011F
:1019400001010351020AD8A401D001D009D001013C
:1019500001010451940F01010101056F01EC0DF02B
:10196000010101010351030AD8A401D001D009D01B
:10197000010101010451D40F01010101056F01ECC6
:101980000DF01200000E01010101096F000E0101AE
:101990000A6F26D0000E010101010B6F000E01013C
:1019A0000C6F690E010101010B5D020E01010C5962
:1019B000D8A001D001D001D00FD0010101010B4B03
:1019C0000C2B690E010101010B5D020E01010C5986
:1019D000D8A001D001D0F1D701010101094B0A2B98
:1019E00001010101075101010101095D010101012D
:1019F0000851010101010A59D8A001D001D0CAD76C
:101A00001200839405C106F1F00E01010617835000
:101A10000F0B01010611836E61EC0DF005C106F19B
:101A20000101063BF00E0617F00E01010617835068
:101A30000F0B01010611836E61EC0DF00A0E01011E
:101A40000101076F000E0101086FC2EC0CF01200DB
:101A5000838415C116F1F00E0101161783500F0B88
:101A600001011611836E61EC0DF015C116F1010133
:101A7000163BF00E1617F00E0101161783500F0BD0
:101A800001011611836E61EC0DF012000101186F57
:101A9000000E01010101176F01011851130E010120
:101AA0000101176501D001D001D00AD00101010167
:101AB000172B130E01010101176501D001D0F6D7D4
:101AC0001200839646EC0DF0838646EC0DF083966B
:061AD00046EC0DF01200CF
:00000001FF
