:040800000CEF04F005
:10080800FACF28F1FBCF29F1E9CF2AF1C2ED0CF09C
:1008180000EE00F010EE02F014EC04F016EF08F011
:0E082800EE6AE550E150FCE1E250FAE1120008
:10100000005265666C65782054696D6520000000AB
:1010100000000000000054696D65203D20000000C4
:10102000000000000000000000000000000E926EB2
:101030009368000E946E000E956E000E966E010180
:10104000056F0F0EC16E01010551000E006E000EFE
:10105000016EF8EC0BF00101056F000E01010101BA
:10106000086F010105510101066F000E0101010128
:10107000076F0101065141EC0CF00101056F000EF4
:1010800001010101006F01010551130E0101010170
:10109000006501D001D001D01BD0010E010101017A
:1010A0000025F66EF76A100EF722F86A000EF82295
:1010B00008000101F5CF19F125EC0DF00101010146
:1010C000002B130E01010101006501D001D0E5D70D
:1010D0000101056F000E01010101086F01010551B9
:1010E0000101066F010E01010101076F01010651A7
:1010F00041EC0CF00101056F000E01010101006FD0
:1011000001010551130E01010101006501D001D05B
:1011100001D01BD0160E010101010025F66EF76A01
:10112000100EF722F86A000EF82208000101F5CF30
:1011300019F125EC0DF001010101002B130E010145
:101140000101006501D001D0E5D7640E0101010164
:101150000B6F000E01010C6F83EC0CF00101056FA9
:10116000050ECA6E010105510101056FF90ECB6E26
:1011700001010551CA849D829F82F28CF28E000E7D
:10118000806E000E846E00D081A001D001D0FCD70B
:1011900084801AD0A00E01010101096F0F0E010118
:1011A0000A6F010E01010101032501010101076F11
:1011B000000E0101010104210101086FACEC0BF0EC
:1011C00007C103F108C104F181B001D001D0E2D719
:1011D000B80E010101010325010101010B6F0B0E86
:1011E00001010101042101010C6F83EC0CF0806806
:1011F000000E006E000E016E00D081A001D001D063
:10120000FCD700C001F101C002F10101056F080E19
:1012100001010101086F010105510101066F010E75
:1012200001010101076F0101065141EC0CF00101C0
:10123000056F040E010101010C6F0101055101014F
:10124000066F060E010101010B6F0101065101013C
:10125000010101C107F10101010102C108F1010110
:101260000101096B01010A6B24EC0AF0E80E01018F
:1012700001010B6F030E01010C6F83EC0CF07FD7A3
:101280000CEF04F00101276F000E01010101226F34
:10129000010127510101010120AF01D001D018D077
:1012A00001010101201F01011F1F01011E1F01017A
:1012B0001D6D000E01011E2301011F2301012023CA
:1012C0000101276F010E01010101226F0101275168
:1012D000010101011CAF01D001D014D001010101B5
:1012E0001C1F01011B1F01011A1F0101196D000EB6
:1012F00001011A2301011B2301011C23010E01011D
:101300000101221B000E01010101236F000E0101EA
:10131000246F000E0101256F000E0101266F0101EF
:1013200020511D111E111F11D8B401D001D06BD056
:101330000101276F010E01010101216F01012751F8
:101340000DD00101D89001011D3701011E370101A7
:101350001F370101203701010101212B010101018A
:1013600020AF01D001D0EDD70101D8900101233782
:10137000010124370101253701012637010101014F
:101380001D5101010101195D010101011E51010100
:1013900001011A59010101011F51010101011B59EC
:1013A000010101012051010101011C59D8A001D006
:1013B00001D01BD0010101011D5101010101195F83
:1013C000010101011E51010101011A5B010101012D
:1013D0001F51010101011B5B0101010120510101AC
:1013E00001011C5B0101010123810101D890010170
:1013F000203301011F3301011E3301011D3301019F
:101400000101212FB1D7010101012251D8B401D02E
:1014100001D010D001010101261F0101251F01018A
:10142000241F0101236D000E010124230101252346
:101430000101262323C119F124C11AF125C11BF191
:1014400026C11CF100D01200010101010AAF01D038
:1014500001D01BD00101186F2D0E01010101196F80
:101460000101185125EC0DF0010101010A1F0101D4
:10147000091F0101081F0101076D000E010108236A
:101480000101092301010A230AD00101186F200E6E
:1014900001010101196F0101185125EC0DF0010145
:1014A000186F000E010101010D6F01011851090EA5
:1014B000010101010D6501D001D001D04ED0010123
:1014C0000E0E010101010D25E96EEA6A0101010E0E
:1014D000EA220A0E010101011D6F000E01011E6FBB
:1014E000000E01011F6F000E0101206F07C119F1ED
:1014F00008C11AF109C11BF10AC11CF1E8EC0AF09C
:10150000010101011951EF6E0A0E010101011D6F68
:10151000000E01011E6F000E01011F6F000E010180
:10152000206F07C119F108C11AF109C11BF10AC1E5
:101530001CF142EC09F019C107F11AC108F11BC1F5
:1015400009F11CC10AF1010101010D2B090E010174
:1015500001010D6501D001D0B2D70BC10DF1010120
:1015600001010D6701D001D001D031D0010101018D
:101570000C51010101010D6301D001D00AD001011C
:10158000186F2E0E01010101196F0101185125EC90
:101590000DF00DC118F1FF0E0101182701010E0E0B
:1015A00001011825E96EEA6A0101010EEA22EF50F5
:1015B000300F01010101196F25EC0DF0010101014E
:1015C0000D07010101010D6701D001D0CFD7120035
:1015D0000101236F000E01010101216F010123515F
:1015E000010101011CAF01D001D018D0010101019E
:1015F0001C1F01011B1F01011A1F0101196D000EA3
:1016000001011A2301011B2301011C230101236F86
:10161000010E01010101216F0101235101010101AD
:1016200020AF01D001D010D001010101201F010124
:101630001F1F01011E1F01011D6D000E01011E2350
:1016400001011F2301012023010120511D111E1141
:101650001F11D8B401D001D05ED00101236F010E5B
:1016600001010101226F010123510DD00101D89028
:1016700001011D3701011E3701011F37010120370C
:1016800001010101222B0101010120AF01D001D094
:10169000EDD7010101011D5101010101195D010198
:1016A00001011E51010101011A59010101011F51DE
:1016B000010101011B590101010120510101010139
:1016C0001C59D8A001D001D018D0010101011D5131
:1016D00001010101195F010101011E510101010117
:1016E0001A5B010101011F51010101011B5B010195
:1016F00001012051010101011C5B0101D890010190
:10170000203301011F3301011E3301011D3301018B
:101710000101222FBED7010101012151D8B401D00E
:1017200001D010D0010101011C1F01011B1F01018B
:101730001A1F0101196D000E01011A2301011B235B
:1017400001011C2319C119F11AC11AF11BC11BF1A6
:101750001CC11CF100D01200010101010A51091144
:10176000D8B401D001D03ED001010C6F010E0101AF
:1017700001010B6F01010C5109D00101D890010149
:10178000093701010A37010101010B2B0101010198
:101790000AAF01D001D0F1D70101010109510101C6
:1017A0000101075D010101010A510101010108590F
:1017B000D8A001D001D00CD00101010109510101D3
:1017C0000101075F010101010A5101010101085BEB
:1017D0000101D89001010A3301010933010101011E
:1017E0000B2FDAD707C107F108C108F100D01200AA
:1017F000000E956E83920101076F330E0101010106
:10180000096F01010751FEEC0CF00101076F320E68
:1018100001010101096F01010751FEEC0CF001010A
:10182000076F280E01010101096F01010751FEEC4C
:101830000CF00101076F0E0E01010101096F01019A
:101840000751FEEC0CF00101076F010E01010101CF
:10185000096F01010751FEEC0CF00101076F060E44
:1018600001010101096F01010751FEEC0CF0640E4A
:10187000010101010B6F000E01010C6F83EC0CF0F4
:10188000120001010101076701D001D009D0010157
:1018900001010851800F01010101096FFEEC0CF0FC
:1018A000010101010705D8A401D001D009D001012F
:1018B00001010851C00F01010101096FFEEC0CF09C
:1018C000010101010751020AD8A401D001D009D0B9
:1018D000010101010851940F01010101096FFEECA2
:1018E0000CF0010101010751030AD8A401D001D075
:1018F00009D0010101010851D40F01010101096F53
:10190000FEEC0CF01200000E010101010D6F000E43
:1019100001010E6F26D0000E010101010F6F000EB4
:101920000101106F690E010101010F5D020E01013D
:101930001059D8A001D001D001D00FD00101010170
:101940000F4B102B690E010101010F5D020E010109
:101950001059D8A001D001D0F1D7010101010D4BE0
:101960000E2B010101010B51010101010D5D01016E
:1019700001010C51010101010E59D8A001D001D083
:10198000CAD712000600EACF2BF1E1CF2CF1E2CF4B
:101990002DF1D9CF2EF1DACF2FF1F3CF30F1F4CFF3
:1019A00031F1F6CF32F1F7CF33F1F8CF34F19EA217
:1019B00001D001D008D08270010E0024006E000E0C
:1019C0000120016E9E9234C1F8FF33C1F7FF32C18E
:1019D000F6FF31C1F4FF30C1F3FF2FC1DAFF2EC192
:1019E000D9FF2DC1E2FF2CC1E1FF2BC1EAFF2AC1C3
:1019F000E9FF29C1FBFF28C1FAFF1100839409C147
:101A00000AF1F00E01010A1783500F0B01010A11B0
:101A1000836E5EEC0DF009C10AF101010A3BF00E84
:101A20000A17F00E01010A1783500F0B01010A116A
:101A3000836E5EEC0DF00A0E010101010B6F000ECA
:101A400001010C6F83EC0CF01200838419C11AF1B0
:101A5000F00E01011A1783500F0B01011A11836E4A
:101A60005EEC0DF019C11AF101011A3BF00E1A17C4
:101A7000F00E01011A1783500F0B01011A11836E2A
:101A80005EEC0DF0120001011C6F000E010101015E
:101A90001B6F01011C51130E010101011B6501D0D7
:101AA00001D001D00AD0010101011B2B130E01014D
:101AB00001011B6501D001D0F6D71200839643ECDB
:101AC0000DF0838643EC0DF0839643EC0DF012008D
:00000001FF
