:020000040000FA
:10080000FF0E936E946A826A000E81620AEF04F012
:1008100004EF04F001C002F000C001F081CF00F04D
:1008200012EF04F0000E816212EF04F018EF04F0F2
:10083000010E006204EF04F0020E016204EF04F006
:10084000040E026204EF04F026EF04F0FF0E826E45
:100850002AEF04F035EC04F02EEF04F0000E826E67
:10086000006E016E026E04EF04F0036E320E026E33
:10087000640E016E00000000000000000000000097
:100880000000012E3AEF04F0022E38EF04F0032EA0
:0608900036EF04F0120037
:00000001FF
