:040800009CEF7FF0FA
:10FF3800000E946E0001FB6F0F0EC16E0001FB51A5
:10FF480092680F0E966E0001FB6F950EC06E000151
:10FF5800FB510001FB6F070EC16E0001FB51010E42
:10FF6800C26E0001FB6F000E00010001FC6F000172
:10FF7800FB51C8EC7FF0FCC0F9F0FDC0FAF0822814
:10FF8800826EEFD700EF04F000010001FC510F0B67
:10FF980000010001FC6FFCC0FFF0D8900001FF37A2
:10FFA800D8900001FF370001FF29C26E0001FF6FE2
:10FFB800000E00010001FE6F0001FF51020E00015A
:10FFC8000001FE6501D001D001D00AD00001000176
:10FFD800FE2B020E00010001FE6501D001D0F6D70C
:10FFE800C28200D0C2B201D001D0FCD7C3CFFCF08E
:08FFF800C4CFFDF000D012009F
:00000001FF
