:040000000CEF08F009
:10100000005369782D536964656420446965202024
:101010002020202020000000000E926E9368000E19
:10102000946E0001DD6F0F0EC16E0001DD519FEC6B
:101030000CF00001DD6F000E00010001E06F000107
:10104000DD510001DE6F000E00010001DF6F0001C5
:10105000DE51E8EC0CF0000E00010001DB6F000E29
:101060000001DC6F140E00010001DB5D000E0001C9
:10107000DC59D8A001D001D001D020D0010E000150
:101080000001DB25F66EF76A100EF722F86A000EF3
:10109000F82208000001F5CFF1F090EC0DF000010E
:1010A0000001DB4BDC2B140E00010001DB5D000EA8
:1010B0000001DC59D8A001D001D0E0D792680F0E12
:1010C000966E0001DD6F850EC06E0001DD510001DE
:1010D000DD6F070EC16E0001DD51010EC26E000E04
:1010E00000010001DB6F000E0001DC6F9450C009AD
:1010F000946E9D989D9AAC94B886AC98AF68220E79
:10110000AC6E900EAB6E00D081A001D001D0FCD7A8
:1011100034D0060E00010001E16F000E0001E26F05
:10112000010E00010001D92500010001DF6F000E52
:1011300000010001DA210001E06F53EC0CF0DFC088
:10114000D9F0E0C0DAF00B0E00010001E16F000EF3
:101150000001E26F010E00010001D725000100012E
:10116000DF6F000E00010001D8210001E06F53EC99
:101170000CF0DFC0D7F0E0C0D8F081B001D001D0D2
:10118000C8D7010E00010001D92500010001D96F67
:10119000000E00010001DA210001DA6F00010001F8
:1011A000D851D711D8A401D001D007D0060E000124
:1011B0000001D96F000E0001DA6F0001DD6F000E33
:1011C00000010001E06F0001DD510001DE6F010E42
:1011D00000010001DF6F0001DE51E8EC0CF00001BE
:1011E000DD6F000E00010001E46F0001DD51000120
:1011F000DE6F010E00010001E36F0001DE5100010E
:101200000001D9C0DFF000010001DAC0E0F0000108
:101210000001E16B0001E26B14EC0AF00001DD6FEC
:10122000000E00010001E46F0001DD510001DE6FDE
:10123000010E00010001E36F0001DE510001000119
:10124000D9C0DFF000010001DAC0E0F000010001C8
:10125000E16B0001E26B9CEC0BF0C9EC0DF053D795
:1012600000EF00F00001FF6F000E00010001FA6FB7
:101270000001FF5100010001F8AF01D001D018D0EA
:1012800000010001F81F0001F71F0001F61F000117
:10129000F56D000E0001F6230001F7230001F8238D
:1012A0000001FF6F010E00010001FA6F0001FF5104
:1012B00000010001F4AF01D001D014D00001000101
:1012C000F41F0001F31F0001F21F0001F16D000E79
:1012D0000001F2230001F3230001F423010E0001B9
:1012E0000001FA1B000E00010001FB6F000E00015F
:1012F000FC6F000E0001FD6F000E0001FE6F00018B
:10130000F851F511F611F711D8B401D001D06BD016
:101310000001FF6F010E00010001F96F0001FF5194
:101320000DD00001D8900001F5370001F63700011B
:10133000F7370001F83700010001F92B0001000127
:10134000F8AF01D001D0EDD70001D8900001FB37F4
:101350000001FC370001FD370001FE3700010001EC
:10136000F55100010001F15D00010001F65100019D
:101370000001F25900010001F75100010001F35989
:1013800000010001F85100010001F459D8A001D07A
:1013900001D01BD000010001F55100010001F15FF7
:1013A00000010001F65100010001F25B00010001A3
:1013B000F75100010001F35B00010001F851000149
:1013C0000001F45B00010001FB810001D8900001E5
:1013D000F8330001F7330001F6330001F533000163
:1013E0000001F92FB1D700010001FA51D8B401D0A2
:1013F00001D010D000010001FE1F0001FD1F0001FF
:10140000FC1F0001FB6D000E0001FC230001FD2309
:101410000001FE23FBC0F1F0FCC0F2F0FDC0F3F0D0
:10142000FEC0F4F000D0120000010001E2AF01D0D4
:1014300001D01BD00001F06F2D0E00010001F16FF3
:101440000001F05190EC0DF000010001E21F0001DD
:10145000E11F0001E01F0001DF6D000E0001E0232D
:101460000001E1230001E2230AD00001F06F200E09
:1014700000010001F16F0001F05190EC0DF000014E
:10148000F06F000E00010001E56F0001F051090E40
:1014900000010001E56501D001D001D04ED000016E
:1014A000E60E00010001E525E96EEA6A0001000E82
:1014B000EA220A0E00010001F56F000E0001F66F2E
:1014C000000E0001F76F000E0001F86FDFC0F1F0B1
:1014D000E0C0F2F0E1C0F3F0E2C0F4F0D8EC0AF0C2
:1014E00000010001F151EF6E0A0E00010001F56FDD
:1014F000000E0001F66F000E0001F76F000E0001F4
:10150000F86FDFC0F1F0E0C0F2F0E1C0F3F0E2C04C
:10151000F4F032EC09F0F1C0DFF0F2C0E0F0F3C01B
:10152000E1F0F4C0E2F000010001E52B090E00013A
:101530000001E56501D001D0B2D7E3C0E5F00001BC
:101540000001E56701D001D001D031D000010001D8
:10155000E45100010001E56301D001D00AD000018F
:10156000F06F2E0E00010001F16F0001F05190ECC0
:101570000DF0E5C0F0F0FF0E0001F0270001E60ECF
:101580000001F025E96EEA6A0001000EEA22EF5040
:10159000300F00010001F16F90EC0DF0000100012F
:1015A000E50700010001E56701D001D0CFD71200A7
:1015B0000001FB6F000E00010001F96F0001FB51FB
:1015C00000010001F4AF01D001D018D000010001EA
:1015D000F41F0001F31F0001F21F0001F16D000E66
:1015E0000001F2230001F3230001F4230001FB6F4B
:1015F000010E00010001F96F0001FB510001000123
:10160000F8AF01D001D010D000010001F81F000197
:10161000F71F0001F61F0001F56D000E0001F62313
:101620000001F7230001F8230001F851F511F6112C
:10163000F711D8B401D001D05ED00001FB6F010ECC
:1016400000010001FA6F0001FB510DD00001D8909C
:101650000001F5370001F6370001F7370001F837D0
:1016600000010001FA2B00010001F8AF01D001D008
:10167000EDD700010001F55100010001F15D00010D
:101680000001F65100010001F25900010001F7517B
:1016900000010001F35900010001F85100010001AF
:1016A000F459D8A001D001D018D000010001F551A3
:1016B00000010001F15F00010001F651000100018D
:1016C000F25B00010001F75100010001F35B000132
:1016D0000001F85100010001F45B0001D890000105
:1016E000F8330001F7330001F6330001F533000150
:1016F0000001FA2FBED700010001F951D8B401D082
:1017000001D010D000010001F41F0001F31F0001FF
:10171000F21F0001F16D000E0001F2230001F3231E
:101720000001F423F1C0F1F0F2C0F2F0F3C0F3F0E5
:10173000F4C0F4F000D0120000D0ACA201D001D06F
:10174000FCD700010001E2AF01D001D013D02D0E73
:10175000AD6E00010001E21F0001E11F0001E01F6A
:101760000001DF6D000E0001E0230001E123000114
:10177000E22302D0200EAD6E0001F06F000E0001DA
:101780000001E56F0001F051090E00010001E5655F
:1017900001D001D001D04ED00001E60E00010001C1
:1017A000E525E96EEA6A0001000EEA220A0E000150
:1017B0000001F56F000E0001F66F000E0001F76FDB
:1017C000000E0001F86FDFC0F1F0E0C0F2F0E1C000
:1017D000F3F0E2C0F4F0D8EC0AF000010001F1519E
:1017E000EF6E0A0E00010001F56F000E0001F66FAA
:1017F000000E0001F76F000E0001F86FDFC0F1F07E
:10180000E0C0F2F0E1C0F3F0E2C0F4F032EC09F035
:10181000F1C0DFF0F2C0E0F0F3C0E1F0F4C0E2F0BC
:1018200000010001E52B090E00010001E56501D072
:1018300001D0B2D7E3C0E5F000010001E56701D0B7
:1018400001D001D02FD000010001E45100010001BE
:10185000E56301D001D007D000D0ACA201D001D007
:10186000FCD72E0EAD6E00D0ACA201D001D0FCD7BB
:10187000E5C0F0F0FF0E0001F0270001E60E0001C8
:10188000F025E96EEA6A0001000EEA22EF50300FFF
:10189000AD6E00010001E50700010001E56701D020
:1018A00001D0D1D7120000010001E251E111D8B4FA
:1018B00001D001D03ED00001E46F010E0001000113
:1018C000E36F0001E45109D00001D8900001E13735
:1018D0000001E23700010001E32B00010001E2AF4B
:1018E00001D001D0F1D700010001E1510001000158
:1018F000DF5D00010001E25100010001E059D8A0C4
:1019000001D001D00CD000010001E1510001000123
:10191000DF5F00010001E25100010001E05B000116
:10192000D8900001E2330001E13300010001E32F10
:10193000DAD7DFC0DFF0E0C0E0F000D01200000E28
:10194000956E83920001DF6F330E00010001E16F9D
:101950000001DF5169EC0DF00001DF6F320E000174
:101960000001E16F0001DF5169EC0DF00001DF6F54
:10197000280E00010001E16F0001DF5169EC0DF05C
:101980000001DF6F0E0E00010001E16F0001DF5169
:1019900069EC0DF00001DF6F010E00010001E16F45
:1019A0000001DF5169EC0DF00001DF6F060E000150
:1019B0000001E16F0001DF5169EC0DF0640E0001E0
:1019C0000001E36F000E0001E46F2AEC0DF012003D
:1019D00000010001DF6701D001D009D00001000142
:1019E000E051800F00010001E16F69EC0DF0000192
:1019F0000001DF05D8A401D001D009D00001000109
:101A0000E051C00F00010001E16F69EC0DF0000131
:101A10000001DF51020AD8A401D001D009D0000191
:101A20000001E051940F00010001E16F69EC0DF03D
:101A300000010001DF51030AD8A401D001D009D070
:101A400000010001E051D40F00010001E16F69ECD9
:101A50000DF01200000E00010001E56F000E000104
:101A6000E66F26D0000E00010001E76F000E0001B6
:101A7000E86F690E00010001E75D020E0001E85900
:101A8000D8A001D001D001D00FD000010001E74B58
:101A9000E82B690E00010001E75D020E0001E85924
:101AA000D8A001D001D0F1D700010001E54BE62B11
:101AB00000010001E35100010001E55D00010001AA
:101AC000E45100010001E659D8A001D001D0CAD7E5
:101AD00012008394E1C0E2F0F00E0001E21783509F
:101AE0000F0B0001E211836ED8EC0DF0E1C0E2F0C3
:101AF0000001E23BF00EE217F00E0001E217835006
:101B00000F0B0001E211836ED8EC0DF00A0E0001FC
:101B10000001E36F000E0001E46F2AEC0DF01200EB
:101B20008384F1C0F2F0F00E0001F21783500F0B26
:101B30000001F211836ED8EC0DF0F1C0F2F000015B
:101B4000F23BF00EF217F00E0001F21783500F0B6C
:101B50000001F211836ED8EC0DF012000001F46F59
:101B6000000E00010001F36F0001F451130E00019B
:101B70000001F36501D001D001D00AD000010001BD
:101B8000F32B130E00010001F36501D001D0F6D74D
:101B9000120000D0ACA201D001D0FCD70D0EAD6E6A
:101BA00000D0ACA201D001D0FCD70A0EAD6E12005D
:101BB0008396AEEC0DF08386AEEC0DF08396AEEC22
:041BC0000DF0120012
:00000001FF
