:0408000015EF08F0F8
:10100000006469636520506F696E74202042616ED0
:101010006B20202020202020202020202020202085
:1010200020202020202020202000000E926E936897
:10103000000E946E000E956E000E966E0001D56F38
:101040000F0EC16E0001D5510A0E00010001D36FD1
:10105000000E0001D46F57EC0EF00001D56F000EAA
:1010600000010001E06F0001D5510001D66F000EB4
:1010700000010001DF6F0001D651A0EC0EF0000E60
:1010800000010001D16F000E0001D26F140E0001AB
:101090000001D15D000E0001D259D8A001D001D0CD
:1010A00001D020D0010E00010001D125F66EF76AB3
:1010B000100EF722F86A000EF82208000001F5CFA2
:1010C000F1F048EC0FF000010001D14BD22B140ECF
:1010D00000010001D15D000E0001D259D8A001D05D
:1010E00001D0E0D70001D56F000E00010001E06FD4
:1010F0000001D5510001D66F010E00010001DF6F24
:101100000001D651A0EC0EF0000E00010001D16FDD
:10111000000E0001D26F140E00010001D15D000E1F
:101120000001D259D8A001D001D001D020D0150E95
:1011300000010001D125F66EF76A100EF722F86A59
:10114000000EF82208000001F5CFF1F048EC0FF096
:1011500000010001D14BD22B140E00010001D15D22
:10116000000E0001D259D8A001D001D0E0D7460E20
:1011700000010001E36F000E0001E46FE2EC0EF0ED
:101180000A0E00010001D36F000E0001D46F000EA3
:1011900000010001CD6F000E0001CE6F000E0001B6
:1011A0000001CF6F000E0001D06FD3C0DBF0D4C0C0
:1011B000DCF0000E00010001D96F000E0001DA6FB3
:1011C0000001D56F000E00010001D86F0001D5515C
:1011D0000001D66F000E00010001D76F0001D6514B
:1011E00092EC0AF00001CB0E00010001D96F000162
:1011F000000E0001DA6F0001CA0E00010001D76F76
:101200000001000E0001D86F01EC0EF0000100019A
:10121000CA5100010001CB2500010001CC6F000183
:101220000001CE51CD11D8A401D001D053D000017E
:101230000001CC51070AD8B401D001D008D0000178
:101240000001CC510B0AD8A401D001D005D0000177
:101250000001D34BD42B2CD000010001CC51020A49
:10126000D8B401D001D010D000010001CC51030A44
:10127000D8B401D001D008D000010001CC510C0A33
:10128000D8A401D001D006D000010001D307D8A016
:10129000D4070ED0010E00010001CD6F000E000139
:1012A000CE6F00010001CCC0CFF000010001D06B77
:1012B000D3C0DBF0D4C0DCF000010001CCC0D9F019
:1012C00000010001DA6BCBC0D8F0CAC0D7F092ECB5
:1012D0000AF043D000010001CC51070AD8B401D074
:1012E00001D008D000010001CC510B0AD8A401D0D4
:1012F00001D006D000010001D307D8A0D4071FD029
:101300000001CCC0D5F00001D66B00010001D05126
:101310000001D61905E100010001CF510001D519E6
:10132000D8A401D001D00BD000010001D34BD42BA5
:10133000000E00010001CD6F000E0001CE6FD3C082
:10134000DBF0D4C0DCF0CFC0D9F0D0C0DAF0CBC035
:10135000D8F0CAC0D7F092EC0AF044D700EF04F0FE
:101360000001FF6F000E00010001FA6F0001FF5144
:1013700000010001F8AF01D001D018D00001000138
:10138000F81F0001F71F0001F61F0001F56D000EA8
:101390000001F6230001F7230001F8230001FF6F8D
:1013A000010E00010001FA6F0001FF510001000170
:1013B000F4AF01D001D014D000010001F41F0001EE
:1013C000F31F0001F21F0001F16D000E0001F22376
:1013D0000001F3230001F423010E00010001FA1BB8
:1013E000000E00010001FB6F000E0001FC6F000EFB
:1013F0000001FD6F000E0001FE6F0001F851F511B4
:10140000F611F711D8B401D001D06BD00001FF6FF5
:10141000010E00010001F96F0001FF510DD0000124
:10142000D8900001F5370001F6370001F7370001C9
:10143000F83700010001F92B00010001F8AF01D0DD
:1014400001D0EDD70001D8900001FB370001FC3737
:101450000001FD370001FE3700010001F5510001D8
:101460000001F15D00010001F65100010001F25997
:1014700000010001F75100010001F35900010001D2
:10148000F85100010001F459D8A001D001D01BD0BF
:1014900000010001F55100010001F15F00010001B0
:1014A000F65100010001F25B00010001F75100015B
:1014B0000001F35B00010001F85100010001F45B41
:1014C00000010001FB810001D8900001F833000108
:1014D000F7330001F6330001F53300010001F92F65
:1014E000B1D700010001FA51D8B401D001D010D019
:1014F00000010001FE1F0001FD1F0001FC1F000193
:10150000FB6D000E0001FC230001FD230001FE2302
:10151000FBC0F1F0FCC0F2F0FDC0F3F0FEC0F4F04F
:1015200000D012000001DD6F000E00010001E06F2D
:101530000001DD510001DE6F010E00010001DF6FCF
:101540000001DE51A0EC0EF00001DD6F000E000185
:101550000001E46F0001DD510001DE6F010E0001AA
:101560000001E36F0001DE5100010001D7510001CD
:101570000001DF6F0001E06B0001E16B0001E26B35
:101580005DEC0BF00001DD6F020E00010001E06F69
:101590000001DD510001DE6F010E00010001DF6F6F
:1015A0000001DE51A0EC0EF00001DD6F000E000125
:1015B0000001E46F0001DD510001DE6F010E00014A
:1015C0000001E36F0001DE5100010001D85100016C
:1015D0000001DF6F0001E06B0001E16B0001E26BD5
:1015E0005DEC0BF00001DD6F060E00010001E06F05
:1015F0000001DD510001DE6F010E00010001DF6F0F
:101600000001DE51A0EC0EF00001DD6F000E0001C4
:101610000001E46F0001DD510001DE6F020E0001E8
:101620000001E36F0001DE5100010001D9C0DFF0CD
:1016300000010001DAC0E0F00001000E0001E0BF8F
:10164000FF0E0001E16F0001E26F5DEC0BF00001A5
:10165000DD6F0C0E00010001E06F0001DD510001A3
:10166000DE6F010E00010001DF6F0001DE51A0EC12
:101670000EF00001DD6F000E00010001E46F0001BB
:10168000DD510001DE6F020E00010001E36F000179
:10169000DE5100010001DBC0DFF000010001DCC011
:1016A000E0F00001000E0001E0BFFF0E0001E16F5D
:1016B0000001E26F5DEC0BF0120000010001E2AFEF
:1016C00001D001D01BD00001F06F2D0E00010001F0
:1016D000F16F0001F05148EC0FF000010001E21F32
:1016E0000001E11F0001E01F0001DF6D000E00019D
:1016F000E0230001E1230001E2230AD00001F06FA2
:10170000200E00010001F16F0001F05148EC0FF0D4
:101710000001F06F000E00010001E56F0001F051C3
:10172000090E00010001E56501D001D001D04ED0C5
:101730000001E60E00010001E525E96EEA6A0001FC
:10174000000EEA220A0E00010001F56F000E0001F2
:10175000F66F000E0001F76F000E0001F86FDFC09A
:10176000F1F0E0C0F2F0E1C0F3F0E2C0F4F021ECFF
:101770000CF000010001F151EF6E0A0E00010001B2
:10178000F56F000E0001F66F000E0001F76F000EFE
:101790000001F86FDFC0F1F0E0C0F2F0E1C0F3F05B
:1017A000E2C0F4F0B0EC09F0F1C0DFF0F2C0E0F01C
:1017B000F3C0E1F0F4C0E2F000010001E52B090EF6
:1017C00000010001E56501D001D0B2D7E3C0E5F02A
:1017D00000010001E56701D001D001D031D0000146
:1017E0000001E45100010001E56301D001D00AD0FD
:1017F0000001F06F2E0E00010001F16F0001F051A9
:1018000048EC0FF0E5C0F0F0FF0E0001F0270001FA
:10181000E60E0001F025E96EEA6A0001000EEA22F8
:10182000EF50300F00010001F16F48EC0FF00001A4
:101830000001E50700010001E56701D001D0CFD725
:1018400012000001FB6F000E00010001F96F0001A2
:10185000FB5100010001F4AF01D001D018D000010C
:101860000001F41F0001F31F0001F21F0001F16DE0
:10187000000E0001F2230001F3230001F423000114
:10188000FB6F010E00010001F96F0001FB51000127
:101890000001F8AF01D001D010D000010001F81F05
:1018A0000001F71F0001F61F0001F56D000E000199
:1018B000F6230001F7230001F8230001F851F51188
:1018C000F611F711D8B401D001D05ED00001FB6F42
:1018D000010E00010001FA6F0001FB510DD0000163
:1018E000D8900001F5370001F6370001F737000105
:1018F000F83700010001FA2B00010001F8AF01D018
:1019000001D0EDD700010001F55100010001F15DAA
:1019100000010001F65100010001F259000100012F
:10192000F75100010001F35900010001F8510001D5
:101930000001F459D8A001D001D018D00001000155
:10194000F55100010001F15F00010001F6510001B5
:101950000001F25B00010001F75100010001F35B9F
:1019600000010001F85100010001F45B0001D89072
:101970000001F8330001F7330001F6330001F533BD
:1019800000010001FA2FBED700010001F951D8B4BF
:1019900001D001D010D000010001F41F0001F31F9D
:1019A0000001F21F0001F16D000E0001F2230001A1
:1019B000F3230001F423F1C0F1F0F2C0F2F0F3C020
:1019C000F3F0F4C0F4F000D012000001E46F000E58
:1019D00000010001E16F0001E45100010001DFAFEF
:1019E00001D001D00FD000010001DE6D0001DF1F2A
:1019F000D8B0DF2B0001E46F010E00010001E16FA0
:101A00000001E45100010001DDAF01D001D00BD095
:101A100000010001DC6D0001DD1FD8B0DD2B010EDF
:101A200000010001E11B000E00010001E26F000E49
:101A30000001E36F00010001DF51DE11D8B401D0D5
:101A400001D047D00001E46F010E00010001E06FFA
:101A50000001E45109D00001D8900001DE370001F7
:101A6000DF3700010001E02B00010001DFAF01D0F2
:101A700001D0F1D70001D8900001E2370001E3372F
:101A800000010001DE5100010001DC5D00010001E8
:101A9000DF5100010001DD59D8A001D001D00FD0E5
:101AA00000010001DE5100010001DC5F00010001C6
:101AB000DF5100010001DD5B00010001E281000156
:101AC000D8900001DF330001DE3300010001E02F78
:101AD000D1D700010001E151D8B401D001D007D025
:101AE00000010001E26D0001E31FD8B0E32BE2C06A
:101AF000DCF0E3C0DDF000D012000001E26F000E68
:101B000000010001E06F0001E25100010001DDAFC2
:101B100001D001D00FD000010001DC6D0001DD1FFC
:101B2000D8B0DD2B0001E26F010E00010001E06F73
:101B30000001E25100010001DFAF01D001D007D068
:101B400000010001DE6D0001DF1FD8B0DF2B0001B6
:101B50000001DF51DE11D8B401D001D03ED0000128
:101B6000E26F010E00010001E16F0001E25109D0B6
:101B70000001D8900001DE370001DF3700010001CD
:101B8000E12B00010001DFAF01D001D0F1D700014E
:101B90000001DE5100010001DC5D00010001DF51A8
:101BA00000010001DD59D8A001D001D00CD0000106
:101BB0000001DE5100010001DC5F00010001DF5186
:101BC00000010001DD5B0001D8900001DF3300015E
:101BD000DE3300010001E12FDAD700010001E051FE
:101BE000D8B401D001D007D000010001DC6D0001A4
:101BF000DD1FD8B0DD2BDCC0DCF0DDC0DDF000D0B7
:101C0000120000D081A001D001D0FCD71BD0240E3F
:101C100000010001DE6F000E0001DF6F010E000108
:101C20000001DB2500010001DC6F0001DD6B000E0F
:101C30000001DD237DEC0DF000010001DC5100010D
:101C40000001DB6F81B001D001D0E1D7060E0001A9
:101C50000001DE6F000E0001DF6F00010001DBC03C
:101C6000DCF000010001DD6BE5EC0CF0000100018F
:101C7000DC29D7C0E9FFD8C0EAFFEF6E060E0001ED
:101C80000001DE6F000E0001DF6F00010001DBC00C
:101C9000DCF000010001DD6B7DEC0DF000010001C6
:101CA000DC29D9C0E9FFDAC0EAFFEF6E1200000EAE
:101CB000956E83920001D76F330E00010001E16F32
:101CC0000001D75121EC0FF00001D76F320E000157
:101CD0000001E16F0001D75121EC0FF00001D76F37
:101CE000280E00010001E16F0001D75121EC0FF037
:101CF0000001D76F0E0E00010001E16F0001D75106
:101D000021EC0FF00001D76F010E00010001E16F1F
:101D10000001D75121EC0FF00001D76F060E000132
:101D20000001E16F0001D75121EC0FF0640E0001BA
:101D30000001E36F000E0001E46FE2EC0EF0120010
:101D400000010001DF6701D001D009D000010001CE
:101D5000E051800F00010001E16F21EC0FF0000164
:101D60000001DF05D8A401D001D009D00001000195
:101D7000E051C00F00010001E16F21EC0FF0000104
:101D80000001DF51020AD8A401D001D009D000011E
:101D90000001E051940F00010001E16F21EC0FF010
:101DA00000010001DF51030AD8A401D001D009D0FD
:101DB00000010001E051D40F00010001E16F21ECAE
:101DC0000FF01200000E00010001E56F000E00018F
:101DD000E66F26D0000E00010001E76F000E000143
:101DE000E86F690E00010001E75D020E0001E8598D
:101DF000D8A001D001D001D00FD000010001E74BE5
:101E0000E82B690E00010001E75D020E0001E859B0
:101E1000D8A001D001D0F1D700010001E54BE62B9D
:101E200000010001E35100010001E55D0001000136
:101E3000E45100010001E659D8A001D001D0CAD771
:101E400012008394E1C0E2F0F00E0001E21783502B
:101E50000F0B0001E211836E81EC0FF0E1C0E2F0A4
:101E60000001E23BF00EE217F00E0001E217835092
:101E70000F0B0001E211836E81EC0FF00A0E0001DE
:101E80000001E36F000E0001E46FE2EC0EF01200BF
:101E90008384F1C0F2F0F00E0001F21783500F0BB3
:101EA0000001F211836E81EC0FF0F1C0F2F000013D
:101EB000F23BF00EF217F00E0001F21783500F0BF9
:101EC0000001F211836E81EC0FF012000001F46F3B
:101ED000000E00010001F36F0001F451130E000128
:101EE0000001F36501D001D001D00AD0000100014A
:101EF000F32B130E00010001F36501D001D0F6D7DA
:101F00001200839666EC0FF0838666EC0FF08396E2
:061F100066EC0FF0120068
:00000001FF
