:040800000CEF08F001
:10100000004C6F676765722E4320000000000000EF
:101010000000000000000000000E926E0F0E936EA4
:101020000F0E946E000E956E000E966E0001DD6F31
:101030000F0EC16E0001DD5130EC0EF00001DD6FCE
:10104000000E00010001E06F0001DD510001DE6FC4
:10105000000E00010001DF6F0001DE5179EC0EF09F
:10106000000E00010001DB6F000E0001DC6F140EAA
:1010700000010001DB5D000E0001DC59D8A001D0A9
:1010800001D001D020D0010E00010001DB25F66E59
:10109000F76A100EF722F86A000EF8220800000125
:1010A000F5CFDFF078EC0FF000010001DB4BDC2B1B
:1010B000140E00010001DB5D000E0001DC59D8A018
:1010C00001D001D0E0D7F40E00010001E36F010E62
:1010D0000001E46FBBEC0EF092680F0E966E0001FB
:1010E000DD6F850EC06E0001DD510001DD6F070E62
:1010F000C16E0001DD51010EC26E000E0001000143
:10110000DB6F000E0001DC6F9450C009946E9D9857
:101110009D9AAC94B886AC98AF68220EAC6E900ED7
:10112000AB6E050E00010001D96F000E0001DA6FF1
:101130000001DD6F010E00010001DF6F0001DD51D4
:10114000FAEC0EF0DFC0D9F0E0C0DAF0D9C0DFF081
:10115000DAC0E0F077EC0DF0DFC0DFF0E0C0E0F0E7
:10116000E1C0E1F0DB0E00010001E26FF90E0001C9
:101170000001E36F3E0E00010001E46FDFEC09F0B7
:10118000DFC0DFF0E0C0E0F0E1C0E1F036EC0CF0F1
:10119000DFC0D7F0E0C0D8F00001DD6F020E000123
:1011A0000001E46F0001DD510001DE6F050E00015A
:1011B0000001E36F0001DE5100010001D7C0DFF044
:1011C00000010001D8C0E0F00001000E0001E0BF06
:1011D000FF0E0001E16F0001E26F7FEC0BF0B1EC5C
:1011E0000FF0640E00010001E36F000E0001E46FD8
:1011F000BBEC0EF09DD700EF04F00001FF6F000E76
:1012000000010001FA6F0001FF5100010001F8AF79
:1012100001D001D018D000010001F81F0001F71F14
:101220000001F61F0001F56D000E0001F62300011C
:10123000F7230001F8230001FF6F010E00010001F8
:10124000FA6F0001FF5100010001F4AF01D001D09D
:1012500014D000010001F41F0001F31F0001F21F70
:101260000001F16D000E0001F2230001F3230001E3
:10127000F423010E00010001FA1B000E0001000121
:10128000FB6F000E0001FC6F000E0001FD6F000EF1
:101290000001FE6F0001F851F511F611F711D8B4F5
:1012A00001D001D06BD00001FF6F010E00010001E1
:1012B000F96F0001FF510DD00001D8900001F53702
:1012C0000001F6370001F7370001F837000100018F
:1012D000F92B00010001F8AF01D001D0EDD70001DA
:1012E000D8900001FB370001FC370001FD370001F9
:1012F000FE3700010001F55100010001F15D000120
:101300000001F65100010001F25900010001F751FE
:1013100000010001F35900010001F8510001000132
:10132000F459D8A001D001D01BD000010001F55123
:1013300000010001F15F00010001F6510001000110
:10134000F25B00010001F75100010001F35B0001B5
:101350000001F85100010001F45B00010001FB8174
:101360000001D8900001F8330001F7330001F63393
:101370000001F53300010001F92FB1D70001000190
:10138000FA51D8B401D001D010D000010001FE1FE5
:101390000001FD1F0001FC1F0001FB6D000E00019C
:1013A000FC230001FD230001FE23FBC0F1F0FCC083
:1013B000F2F0FDC0F3F0FEC0F4F000D01200000E19
:1013C00000010001E86F000E00010001E96F000E4E
:1013D00000010001EA6F0001E60E00010001EE6F5E
:1013E0000001000E0001EF6F0001DF0E000100019F
:1013F000EC6F0001000E0001ED6FDBEC0DF0000161
:101400000001E56F0001E70E00010001EE6F000131
:10141000000E0001EF6F0001E20E00010001EC6F11
:101420000001000E0001ED6FDBEC0DF0000100018A
:10143000E51B00010001E751D8B401D001D006D06E
:1014400000010001E66701D001D007D0E8C0DFF05D
:10145000E9C0E0F0EAC0E1F08DD000010001E75101
:101460007B0F00010001E6270001EB6F070E000172
:101470000001E76F0001EB5100010001DFA101D085
:1014800001D012D000010001E25100010001E82763
:1014900000010001E35100010001E9230001000106
:1014A000E45100010001EA230001D8900001E1337A
:1014B0000001E0330001DF330001D8900001E23782
:1014C0000001E3370001E43700010001E72FD4D722
:1014D0000001EB6F090E00010001E76F0001EB5105
:1014E00000010001DFA101D001D012D000010001F4
:1014F000E25100010001E82700010001E351000171
:101500000001E92300010001E45100010001EA2388
:101510000001D8900001E1330001E0330001DF3326
:101520000001D8900001EA330001E9330001E833FB
:1015300000010001E72FD4D7E6C0EEF00001E80E6D
:1015400000010001EC6F0001000E0001ED6FD8EC0E
:101550000CF000010001E551D8B401D001D003D056
:1015600000010001EA8FE8C0DFF0E9C0E0F0EAC066
:10157000E1F000D012000001FB6F000E000100013D
:10158000F96F0001FB5100010001F4AF01D001D05F
:1015900018D000010001F41F0001F31F0001F21F29
:1015A0000001F16D000E0001F2230001F3230001A0
:1015B000F4230001FB6F010E00010001F96F00012F
:1015C000FB5100010001F8AF01D001D010D00001A3
:1015D0000001F81F0001F71F0001F61F0001F56D63
:1015E000000E0001F6230001F7230001F82300019B
:1015F000F851F511F611F711D8B401D001D05ED031
:101600000001FB6F010E00010001FA6F0001FB51A8
:101610000DD00001D8900001F5370001F637000128
:10162000F7370001F83700010001FA2B0001000133
:10163000F8AF01D001D0EDD700010001F551000154
:101640000001F15D00010001F65100010001F259B5
:1016500000010001F75100010001F35900010001F0
:10166000F85100010001F459D8A001D001D018D0E0
:1016700000010001F55100010001F15F00010001CE
:10168000F65100010001F25B00010001F751000179
:101690000001F35B00010001F85100010001F45B5F
:1016A0000001D8900001F8330001F7330001F63350
:1016B0000001F53300010001FA2FBED7000100013F
:1016C000F951D8B401D001D010D000010001F41FAD
:1016D0000001F31F0001F21F0001F16D000E000177
:1016E000F2230001F3230001F423F1C0F1F0F2C072
:1016F000F2F0F3C0F3F0F4C0F4F000D0120000D028
:10170000ACA201D001D0FCD700010001E2AF01D0B2
:1017100001D013D02D0EAD6E00010001E21F0001BB
:10172000E11F0001E01F0001DF6D000E0001E0235A
:101730000001E1230001E22302D0200EAD6E000182
:10174000F06F000E00010001E56F0001F051090E7D
:1017500000010001E56501D001D001D04ED00001AB
:10176000E60E00010001E525E96EEA6A0001000EBF
:10177000EA220A0E00010001F56F000E0001F66F6B
:10178000000E0001F76F000E0001F86FDFC0F1F0EE
:10179000E0C0F2F0E1C0F3F0E2C0F4F0BBEC0AF01C
:1017A00000010001F151EF6E0A0E00010001F56F1A
:1017B000000E0001F66F000E0001F76F000E000131
:1017C000F86FDFC0F1F0E0C0F2F0E1C0F3F0E2C08A
:1017D000F4F0FDEC08F0F1C0DFF0F2C0E0F0F3C08F
:1017E000E1F0F4C0E2F000010001E52B090E000178
:1017F0000001E56501D001D0B2D7E3C0E5F00001FA
:101800000001E56701D001D001D02FD00001000117
:10181000E45100010001E56301D001D007D000D000
:10182000ACA201D001D0FCD72E0EAD6E00D0ACA280
:1018300001D001D0FCD7E5C0F0F0FF0E0001F02789
:101840000001E60E0001F025E96EEA6A0001000ED3
:10185000EA22EF50300FAD6E00010001E5070001F4
:101860000001E56701D001D0D1D712000001E40EDC
:1018700000010001EE6F0001000E0001EF6F00019A
:10188000DF0E00010001EC6F0001000E0001ED6FA2
:10189000DBEC0DF000010001E36F00010001DF51FE
:1018A00000010001E56F00010001E0510001E66F59
:1018B0000001E1510001E76F0001E86B8E0E0001AD
:1018C0000001E45F00010001E4AF01D001D026D0A7
:1018D00000010001E451800A8F0FD8B001D001D07F
:1018E0000ED0000E00010001DF6F000E0001E06F5E
:1018F000000E0001E16F000E0001E26F58D0000100
:10190000D8900001E8330001E7330001E63300011D
:10191000E53300010001E43FF2D729D01F0E00019A
:101920000001E46501D001D00ED0000E00010001DD
:10193000DF6F000E0001E06F000E0001E16F000E8E
:101940000001E26F34D00DD00001D8900001E537DE
:101950000001E6370001E7370001E8370001000128
:10196000E40700010001E46701D001D0EDD70001D8
:101970000001E351D8B401D001D010D00001000122
:10198000E81F0001E71F0001E61F0001E56D000EE2
:101990000001E6230001E7230001E823E5C0DFF0B2
:1019A000E6C0E0F0E7C0E1F0E8C0E2F000D01200ED
:1019B00000010001EE51D8B401D001D00BD0ECC031
:1019C000E9FFEDC0EAFFEE50EE10ED10D8A401D013
:1019D00001D00CD0ECC0E9FFEDC0EAFF000EEE6EC6
:1019E000000EEE6E000EED6EED5280D00DD00001B7
:1019F0000001EE2BECC0E9FFEDC0EAFFEC52EC5227
:101A0000D890ED32ED32EF32ECC0E9FFEDC0EAFFE5
:101A1000EE52EE52FE0EED14D8A401D001D0E7D75D
:101A200016D000010001EE2BECC0E9FFEDC0EAFF8B
:101A3000EE2A000EEE22ED22ED52ECC0E9FFEDC0E1
:101A4000EAFFEC52EC52D890ED32ED32EF32ECC0BE
:101A5000E9FFEDC0EAFFEE52EE52FF0EED14D8A4FE
:101A600001D001D0DED70CD000010001EE07ECC0A0
:101A7000E9FFEDC0EAFFD890EE36EE36ED36ED52D6
:101A8000ECC0E9FFEDC0EAFFEECFEFF0EECFF0F0F3
:101A9000EECFF1F00001F0AF01D001D0E5D70001A9
:101AA0000001EEB101D001D00BD0ECC0E9FFEDC0D8
:101AB000EAFFFF0EEE167F0EEE16FF0EED16ED524C
:101AC0000001D890EE3300010001EE510001F16FEA
:101AD000F06BEF6BECC0E9FFEDC0EAFF0001EF51E6
:101AE000EE12F051EE12F151ED12ED521200000122
:101AF0000001E051DF11D8A401D001D00DD0000EBB
:101B000000010001DF6F000E00010001E06F000E18
:101B100000010001E16F4ED000010001DFC0E2F0E2
:101B200000010001E0C0E3F000010001E46B0001EE
:101B3000E3BFE40700010001E0AF01D001D00CD009
:101B400000010001E41F0001E31F0001E26D000E2F
:101B50000001E3230001E4230001E56F8E0E000184
:101B60000001EE6F0001E5510001E20E00010001ED
:101B7000EC6F0001000E0001ED6FD8EC0CF00001DD
:101B80000001E0AF01D001D00ED0E2C0E6F0E3C02A
:101B9000E7F0E4C0E8F059EC0FF0E6C0E2F0E7C08F
:101BA000E3F0E8C0E4F0E2C0DFF0E3C0E0F0E4C05E
:101BB000E1F000D01200ECC0E9FFEDC0EAFF010E39
:101BC000EB34020EEB3400010001F06FEEC0E9FFD0
:101BD000EFC0EAFF0001F0C0EFFF00010001F06775
:101BE00001D001D00DD0ECC0E9FFEDC0EAFF000E3E
:101BF000EE6E000EEE6E000EED6EED52000E2FD06A
:101C00000001F16F000E00010001F06F0001F151C1
:101C1000ECC0E9FFEDC0EAFF010EEB8EECC0E9FF7E
:101C2000EDC0EAFFEECFF1F0EECFF2F0EECFF3F041
:101C30000001F3AF01D001D003D000010001F02B6F
:101C4000ECC0E9FFEDC0EAFFFF0EEE16FF0EEE1648
:101C5000000EED16ED5200010001F05100D012000F
:101C6000000E956E83920001DF6F330E00010001BC
:101C7000E16F0001DF5132EC0FF00001DF6F320E37
:101C800000010001E16F0001DF5132EC0FF00001B3
:101C9000DF6F280E00010001E16F0001DF5132EC1F
:101CA0000FF00001DF6F0E0E00010001E16F000177
:101CB000DF5132EC0FF00001DF6F010E0001000177
:101CC000E16F0001DF5132EC0FF00001DF6F060E13
:101CD00000010001E16F0001DF5132EC0FF0640EF2
:101CE00000010001E36F000E0001E46FBBEC0EF099
:101CF000120000010001DF6701D001D009D000010E
:101D00000001E051800F00010001E16F32EC0FF0A3
:101D100000010001DF05D8A401D001D009D00001E5
:101D20000001E051C00F00010001E16F32EC0FF043
:101D300000010001DF51020AD8A401D001D009D06E
:101D400000010001E051940F00010001E16F32EC4D
:101D50000FF000010001DF51030AD8A401D001D027
:101D600009D000010001E051D40F00010001E16F32
:101D700032EC0FF01200000E00010001E56F000EC2
:101D80000001E66F26D0000E00010001E76F000E93
:101D90000001E86F690E00010001E75D020E00011D
:101DA000E859D8A001D001D001D00FD00001000126
:101DB000E74BE82B690E00010001E75D020E000110
:101DC000E859D8A001D001D0F1D700010001E54BBE
:101DD000E62B00010001E35100010001E55D000177
:101DE0000001E45100010001E659D8A001D001D062
:101DF000CAD7120000010001DF510F0B00010001E2
:101E0000DF6FDFC0E2F0D8900001E237D890000128
:101E1000E2370001E229C26E0001E26F000E00010C
:101E20000001E16F0001E251130E00010001E165C4
:101E300001D001D001D00AD000010001E12B130E26
:101E400000010001E16501D001D0F6D7C28200D0C7
:101E5000C2B201D001D0FCD7C3CFDFF0C4CFE0F0D5
:101E600000D012008394E1C0E2F0F00E0001E2170E
:101E700083500F0B0001E211836EC0EC0FF0E1C044
:101E8000E2F00001E23BF00EE217F00E0001E21773
:101E900083500F0B0001E211836EC0EC0FF00A0EAD
:101EA00000010001E36F000E0001E46FBBEC0EF0D7
:101EB000120000010001E6510001E7110001E811E4
:101EC000D8B401D001D00CD0000E00010001E61BF7
:101ED000000E00010001E71B800E00010001E81B5D
:101EE000E6C0E6F0E7C0E7F0E8C0E8F000D0120096
:101EF0008384DFC0E0F0F00E0001E01783500F0B89
:101F00000001E011836EC0EC0FF0DFC0E0F00001D3
:101F1000E03BF00EE017F00E0001E01783500F0BCE
:101F20000001E011836EC0EC0FF012000001E46FBD
:101F3000000E00010001E36F0001E451130E0001E7
:101F40000001E36501D001D001D00AD000010001F9
:101F5000E32B130E00010001E36501D001D0F6D799
:101F6000120000D0ACA201D001D0FCD70D0EAD6E96
:101F700000D0ACA201D001D0FCD70A0EAD6E120089
:101F8000839696EC0FF0838696EC0FF0839696EC92
:041F90000FF012003C
:00000001FF
