:040800000CEF04F005
:10080800FACF29F1FBCF2AF1E9CF2BF1B7ED10F0A0
:1008180000EE00F010EE0CF014EC04F016EF08F007
:0E082800EE6AE550E150FCE1E250FAE1120008
:10100000006D6D3A200000000000000000000000AC
:10101000000000000000487A3A20000000000000B4
:10102000000000000000000000000000000E926EB2
:101030009368040E946E000E956E0101066F0F0EFC
:10104000C16E0101065184EC11F00101066F000E22
:1010500001010101096F010106510101076F000E35
:1010600001010101086F01010751CDEC11F0000EE3
:1010700001010101046F000E0101056F140E010151
:101080000101045D000E01010559D8A001D001D075
:1010900001D020D0010E010101010425F66EF76A8E
:1010A000100EF722F86A000EF82208000101F5CFB1
:1010B0001AF1D2EC12F001010101044B052B140EC0
:1010C00001010101045D000E01010559D8A001D004
:1010D00001D0E0D70101066F000E01010101096F87
:1010E000010106510101076F010E01010101086FA5
:1010F00001010751CDEC11F0000E01010101046F57
:10110000000E0101056F140E01010101045D000EC6
:1011100001010559D8A001D001D001D020D0160E70
:10112000010101010425F66EF76A100EF722F86A34
:10113000000EF82208000101F5CF1AF1D2EC12F0EE
:1011400001010101044B052B140E01010101045D95
:10115000000E01010559D8A001D001D0E0D7640EDE
:10116000010101010C6F000E01010D6F0FEC12F077
:10117000000E066E000E076E000E086E000E096E61
:10118000D59A0101066F820ED56E01010651D58EEA
:10119000F28AF184F28CCD920101066F810ECD6E40
:1011A00001010651CD809D809F80F28C9484050EB4
:1011B000BD6E9D84F28C9492080EBA6EA080F28C63
:1011C000F28E0AC008F10BC009F14EEC12F008C112
:1011D00008F109C109F10AC10AF1850E01010101F5
:1011E0000B6FDB0E010101010C6F3F0E01010101CC
:1011F0000D6F4BEC0CF008C108F109C109F10AC1EF
:101200000AF176EC0FF008C102F109C103F10AC03E
:1012100008F10BC009F14EEC12F008C108F109C148
:1012200009F10AC10AF10A0E010101010B6FD70E83
:10123000010101010C6F3F0E010101010D6F4BEC2B
:101240000CF008C10BF109C10CF10AC10DF1A30E9C
:1012500001010101086F3A0E01010101096F470EFA
:10126000010101010A6FB0EC12F008C108F109C1D7
:1012700009F10AC10AF176EC0FF008C104F009C1C6
:1012800005F004C008F105C009F14EEC12F008C1E8
:101290000BF109C10CF10AC10DF1970E0101010119
:1012A000086F980E01010101096F4A0E0101010149
:1012B0000A6F27EC0DF008C108F109C109F10AC154
:1012C0000AF176EC0FF008C100F109C101F101014A
:1012D000066F050E01010101096F010106510101AF
:1012E000076F000E01010101086F01010751CDECEC
:1012F00011F00101066F020E010101010D6F0101E4
:1013000006510101076F070E010101010C6F010178
:1013100007510101010102C108F10101010103C1ED
:1013200009F1010101010A6B01010B6BB2EC0EF036
:101330000101066F050E01010101096F010106514E
:101340000101076F010E01010101086F0101075141
:10135000CDEC11F00101066F000E010101010D6FCE
:10136000010106510101076F040E010101010C6F1B
:10137000010107510101010100C108F10101010151
:1013800001C109F1010101010A6B01010B6BB2EC12
:101390000EF017D70CEF04F000D00101180E010178
:1013A00001011C6F0101010E01011D6F01010E0EF3
:1013B000010101011A6F0101010E01011B6F2FECE8
:1013C00011F001010101166F01010101186701D03F
:1013D00001D007D011C10EF112C10FF113C110F1EC
:1013E00077D10101170E010101011C6F0101010EEE
:1013F00001011D6F0101110E010101011A6F0101AF
:10140000010E01011B6F2FEC11F001010101146F9E
:10141000010101011751D8B401D001D032D101012D
:10142000196F060E01010101156F0101195101012A
:101430000101175101010101186101D001D04FD004
:1014400001010101185101010101175D0101196F2D
:10145000190E0101195DD8A001D001D011D0000EE4
:10146000010101010E6F000E010101010F6F000E5D
:1014700001010101106F17C118F114C116F12ED02E
:101480000101D89001011137010112370101133711
:1014900001010101170701010101175101010101BA
:1014A0001819D8B401D001D004D001010101152FC1
:1014B000E7D70BD00101D8900101103301010F33A0
:1014C00001010E3301010101182B01010101175126
:1014D00001010101186301D001D0ECD754D0010102
:1014E00001011851010101011719D8B401D001D02F
:1014F0004AD001010101175101010101185D0101EB
:10150000196F190E0101195DD8A001D001D00DD0BD
:10151000000E01010101116F000E01010101126FA6
:10152000000E01010101136F2ED00101D8900101BD
:101530000E3701010F3701011037010101011807B2
:10154000010101011751010101011819D8B401D09D
:1015500001D004D001010101152FE7D70BD0010103
:10156000D89001011333010112330101113301013C
:101570000101172B0101010117510101010118633C
:1015800001D001D0ECD7010101011651D8B401D02E
:1015900001D018D0FF0E010101010E1BFF0E010149
:1015A00001010F1BFF0E01010101101B010E0101C2
:1015B00001010E27000E010101010F23000E0101A0
:1015C00001011023010101011451D8B401D001D04F
:1015D00018D0FF0E01010101111BFF0E01010101D5
:1015E000121BFF0E01010101131B010E010101017C
:1015F0001127000E010101011223000E010101015A
:1016000013230101196F000E01010101166F010181
:101610001951010101011151010101010E270101BF
:1016200001011251010101010F23010101011351B7
:101630000101010110230101010110AF01D001D00E
:1016400020D0FF0E010101010E1BFF0E010101015F
:101650000F1BFF0E01010101101B010E0101010111
:101660000E27000E010101010F23000E01010101EF
:1016700010230101196F010E01010101166F010113
:10168000195118C11CF101010E0E010101011A6F5F
:101690000101010E01011B6F18EC10F001010101A5
:1016A0001651D8B401D001D00CD0000E01010101B7
:1016B0000E1B000E010101010F1B800E0101010133
:1016C000101B0EC10EF10FC10FF110C110F100D0AF
:1016D00012000101286F000E01010101236F0101B9
:1016E00028510101010121AF01D001D018D0010121
:1016F0000101211F0101201F01011F1F01011E6D9A
:10170000000E01011F2301012023010121230101FA
:10171000286F010E01010101236F01012851010110
:1017200001011DAF01D001D014D0010101011D1F25
:1017300001011C1F01011B1F01011A6D000E010197
:101740001B2301011C2301011D23010E01010101C5
:10175000231B000E01010101246F000E0101256F02
:10176000000E0101266F000E0101276F01012151BA
:101770001E111F112011D8B401D001D06BD001016E
:10178000286F010E01010101226F010128510DD0C6
:101790000101D89001011E3701011F3701012037D7
:1017A0000101213701010101222B0101010121AFBA
:1017B00001D001D0EDD70101D890010124370101FA
:1017C00025370101263701012737010101011E518B
:1017D000010101011A5D010101011F510101010116
:1017E0001B59010101012051010101011C59010195
:1017F00001012151010101011D59D8A001D001D0E1
:101800001BD0010101011E51010101011A5F0101FB
:1018100001011F51010101011B5B01010101205167
:10182000010101011C5B01010101215101010101C3
:101830001D5B0101010124810101D89001012133C7
:101840000101203301011F3301011E330101010198
:10185000222FB1D7010101012351D8B401D001D009
:1018600010D001010101271F0101261F0101251FC1
:101870000101246D000E0101252301012623010130
:10188000272324C11AF125C11BF126C11CF127C150
:101890001DF100D01200000E01010101116F000EB8
:1018A00001010101126F000E01010101136F01011D
:1018B0000F0E010101011C6F0101010E01011D6FDD
:1018C0000101080E010101011A6F0101010E010160
:1018D0001B6F2FEC11F0010101010E6F0101100EC1
:1018E000010101011C6F0101010E01011D6F0101C8
:1018F0000B0E010101011A6F0101010E01011B6FA5
:101900002FEC11F0010101010E1B01010101105129
:10191000D8B401D001D006D0010101010F6701D078
:1019200001D007D011C108F112C109F113C10AF1A8
:101930008DD00101010110517B0F010101010F2721
:101940000101146F070E01010101106F0101145113
:101950000101010108A101D001D012D00101010152
:101960000B51010101011127010101010C5101017C
:1019700001011223010101010D5101010101132394
:101980000101D89001010A33010109330101083333
:101990000101D89001010B3701010C3701010D370E
:1019A00001010101102FD4D70101146F090E0101AB
:1019B0000101106F010114510101010108A101D0C1
:1019C00001D012D0010101010B51010101011127C8
:1019D000010101010C510101010112230101010169
:1019E0000D510101010113230101D89001010A33B6
:1019F00001010933010108330101D89001011333BA
:101A0000010112330101113301010101102FD4D75B
:101A10000FC11CF10101110E010101011A6F010139
:101A2000010E01011B6F18EC10F0010101010E51B4
:101A3000D8B401D001D003D001010101138F11C12D
:101A400008F112C109F113C10AF100D01200000E11
:101A500001010101126F000E01010101136F000E5F
:101A600001010101146F0101100E010101011C6F40
:101A70000101010E01011D6F0101080E01010101AB
:101A80001A6F0101010E01011B6F2FEC11F0010112
:101A900001010F6F01010101106701D001D007D0D2
:101AA00012C108F113C109F114C10AF196D0010164
:101AB0000E0E010101011C6F0101010E01011D6FDC
:101AC00001010B0E010101011A6F0101010E01015B
:101AD0001B6F2FEC11F001010101116F01010101D8
:101AE0000E6701D001D007D012C108F113C109F16E
:101AF00014C10AF172D0010101010E51890F0101D7
:101B00000101105F010101011151010101010F1BD0
:101B10000101156F180E01010101116F010115512D
:101B20000101D89001011237010113370101143767
:101B3000010101010B5101010101085D01010101D8
:101B40000C51010101010959010101010D5101016E
:101B500001010A59D8A001D001D015D0010101011D
:101B60000B5101010101085F010101010C5101014B
:101B70000101095B010101010D51010101010A5B34
:101B80000101010112810101D89001010837010111
:101B9000093701010A3701010101112FC1D710C115
:101BA0001CF10101120E010101011A6F0101010E68
:101BB00001011B6F18EC10F0010101010F51D8B4A5
:101BC00001D001D003D001010101148F12C108F12D
:101BD00013C109F114C10AF100D012000101246FF0
:101BE000000E01010101226F0101245101010101D7
:101BF0001DAF01D001D018D0010101011D1F01014D
:101C00001C1F01011B1F01011A6D000E01011B2386
:101C100001011C2301011D230101246F010E01019B
:101C20000101226F010124510101010121AF01D005
:101C300001D010D001010101211F0101201F01016C
:101C40001F1F01011E6D000E01011F230101202332
:101C500001012123010121511E111F112011D8B4AE
:101C600001D001D05ED00101246F010E01010101FC
:101C7000236F010124510DD00101D89001011E37BD
:101C800001011F3701012037010121370101010145
:101C9000232B0101010121AF01D001D0EDD70101BA
:101CA00001011E51010101011A5D010101011F51D4
:101CB000010101011B590101010120510101010133
:101CC0001C59010101012151010101011D59D8A037
:101CD00001D001D018D0010101011E510101010103
:101CE0001A5F010101011F51010101011B5B01018B
:101CF00001012051010101011C5B01010101215180
:101D0000010101011D5B0101D89001012133010195
:101D1000203301011F3301011E3301010101232F73
:101D2000BED7010101012251D8B401D001D010D099
:101D3000010101011D1F01011C1F01011B1F0101E8
:101D40001A6D000E01011B2301011C2301011D233B
:101D50001AC11AF11BC11BF11CC11CF11DC11DF1DF
:101D600000D01200010101010BAF01D001D01BD046
:101D70000101196F2D0E010101011A6F01011951A5
:101D8000D2EC12F0010101010B1F01010A1F010138
:101D9000091F0101086D000E0101092301010A2339
:101DA00001010B230AD00101196F200E010101016D
:101DB0001A6F01011951D2EC12F00101196F000ED6
:101DC000010101010E6F01011951090E010101010B
:101DD0000E6501D001D001D04ED001010F0E0101DE
:101DE00001010E25E96EEA6A0101010EEA220A0EDE
:101DF000010101011E6F000E01011F6F000E0101A4
:101E0000206F000E0101216F08C11AF109C11BF1F9
:101E10000AC11CF10BC11DF1EEEC0DF00101010135
:101E20001A51EF6E0A0E010101011E6F000E010131
:101E30001F6F000E0101206F000E0101216F08C10C
:101E40001AF109C11BF10AC11CF10BC11DF169ECAA
:101E50000BF01AC108F11BC109F11CC10AF11DC127
:101E60000BF1010101010E2B090E010101010E65AB
:101E700001D001D0B2D70CC10EF1010101010E67F2
:101E800001D001D001D031D0010101010D5101017A
:101E900001010E6301D001D00AD00101196F2E0E8D
:101EA000010101011A6F01011951D2EC12F00EC1AA
:101EB00019F1FF0E0101192701010F0E010119256A
:101EC000E96EEA6A0101010EEA22EF50300F0101CA
:101ED00001011A6FD2EC12F0010101010E0701019C
:101EE00001010E6701D001D0CFD7120001010D0E04
:101EF000010101011C6F0101010E01011D6F0101B2
:101F0000080E010101011A6F0101010E01011B6F91
:101F10002FEC11F0010101010C6F010101010851C9
:101F2000010101010E6F01010101095101010F6F52
:101F300001010A510101106F0101116B8E0E0101A7
:101F400001010D5F010101010DAF01D001D026D0CB
:101F5000010101010D51800A8F0FD8B001D001D0CD
:101F60000ED0000E01010101086F000E0101096F82
:101F7000000E01010A6F000E01010B6F58D0010124
:101F8000D890010111330101103301010F33010118
:101F90000E33010101010D3FF2D729D01F0E0101BF
:101FA00001010D6501D001D00ED0000E010101012B
:101FB000086F000E0101096F000E01010A6F000E8B
:101FC00001010B6F34D00DD00101D89001010E3703
:101FD00001010F3701011037010111370101010122
:101FE0000D07010101010D6701D001D0EDD70101FD
:101FF00001010C51D8B401D001D010D00101010170
:10200000111F0101101F01010F1F01010E6D000EB4
:1020100001010F2301011023010111230EC108F159
:102020000FC109F110C10AF111C10BF100D012006A
:10203000010101011C51D8B401D001D00BD01AC14B
:10204000E9FF1BC1EAFFEE50EE10ED10D8A401D05D
:1020500001D00CD01AC1E9FF1BC1EAFF000EEE6EE1
:10206000000EEE6E000EED6EED5280D00DD001012F
:1020700001011C2B1AC1E9FF1BC1EAFFEC52EC5213
:10208000D890ED32ED32EF321AC1E9FF1BC1EAFF01
:10209000EE52EE52FE0EED14D8A401D001D0E7D7D7
:1020A00016D0010101011C2B1AC1E9FF1BC1EAFF77
:1020B000EE2A000EEE22ED22ED521AC1E9FF1BC1FD
:1020C000EAFFEC52EC52D890ED32ED32EF321AC109
:1020D000E9FF1BC1EAFFEE52EE52FF0EED14D8A449
:1020E00001D001D0DED70CD0010101011C071AC1BB
:1020F000E9FF1BC1EAFFD890EE36EE36ED36ED5221
:102100001AC1E9FF1BC1EAFFEECF1DF1EECF1EF1B0
:10211000EECF1FF101011EAF01D001D0E5D70101C3
:1021200001011CB101D001D00BD01AC1E9FF1BC1C4
:10213000EAFFFF0EEE167F0EEE16FF0EED16ED52C5
:102140000101D8901C33010101011C5101011F6FD5
:102150001E6B1D6B1AC1E9FF1BC1EAFF01011D5176
:10216000EE121E51EE121F51ED12ED52120006003A
:10217000EACF2CF1E1CF2DF1E2CF2EF1D9CF2FF123
:10218000DACF30F1F3CF31F1F4CF32F1F6CF33F1D2
:10219000F7CF34F1F8CF35F1F2A401D001D006D059
:1021A000960ED66EE70ED76E8270F2949EA001D086
:1021B00001D00DD0000E0624066E000E0720076E1B
:1021C000010E0820086E000E0920096E9E909EA444
:1021D00001D001D01ED0BD50050AD8A401D001D035
:1021E00009D00650BE24006E0750BF20016E040EB9
:1021F000BD6E0ED00650BE24026E0750BF20036E87
:102200000050025C0A6E015003580B6E050EBD6E45
:102210009E94A1A001D001D007D0010EBA1A04509B
:10222000BB260550BC22A19035C1F8FF34C1F7FF91
:1022300033C1F6FF32C1F4FF31C1F3FF30C1DAFF21
:102240002FC1D9FF2EC1E2FF2DC1E1FF2CC1EAFF52
:102250002BC1E9FF2AC1FBFF29C1FAFF11001AC1F6
:10226000E9FF1BC1EAFF010EEB34020EEB34010162
:1022700001011E6F1CC1E9FF1DC1EAFF01011EC162
:10228000EFFF010101011E6701D001D00DD01AC17D
:10229000E9FF1BC1EAFF000EEE6E000EEE6E000EAF
:1022A000ED6EED52000E2FD001011F6F000E0101E7
:1022B00001011E6F01011F511AC1E9FF1BC1EAFF95
:1022C000010EEB8E1AC1E9FF1BC1EAFFEECF1FF131
:1022D000EECF20F1EECF21F1010121AF01D001D0ED
:1022E00003D0010101011E2B1AC1E9FF1BC1EAFF46
:1022F000FF0EEE16FF0EEE16000EED16ED5201016A
:1023000001011E5100D01200000E956E8392010152
:10231000086F330E010101010A6F0101085189ECB8
:1023200012F00101086F320E010101010A6F010173
:10233000085189EC12F00101086F280E010101011A
:102340000A6F0101085189EC12F00101086F0E0EAD
:10235000010101010A6F0101085189EC12F001012C
:10236000086F010E010101010A6F0101085189EC9A
:1023700012F00101086F060E010101010A6F01014F
:10238000085189EC12F0640E010101010C6F000E7E
:1023900001010D6F0FEC12F012000101010108673D
:1023A00001D001D009D0010101010951800F0101C3
:1023B00001010A6F89EC12F0010101010805D8A49E
:1023C00001D001D009D0010101010951C00F010163
:1023D00001010A6F89EC12F0010101010851020AA2
:1023E000D8A401D001D009D0010101010951940FF5
:1023F000010101010A6F89EC12F00101010108518C
:10240000030AD8A401D001D009D00101010109516A
:10241000D40F010101010A6F89EC12F01200000EC5
:10242000010101010E6F000E01010F6F26D0000E99
:1024300001010101106F000E0101116F690E010110
:102440000101105D020E01011159D8A001D001D087
:1024500001D00FD001010101104B112B690E0101B8
:102460000101105D020E01011159D8A001D001D067
:10247000F1D7010101010E4B0F2B010101010C519C
:10248000010101010E5D010101010D510101010177
:102490000F59D8A001D001D0CAD712000101010103
:1024A00009510811D8A401D001D00DD0000E0101AE
:1024B0000101086F000E01010101096F000E010109
:1024C00001010A6F25D00101010108C10BF10101D1
:1024D000010109C10CF1010101010D6B01010E6F38
:1024E0008E0E010101011C6F01010E5101010B0E45
:1024F000010101011A6F0101010E01011B6F18ECAE
:1025000010F00BC108F10CC109F10DC10AF100D0A6
:10251000120083940AC10BF1F00E01010B178350D6
:102520000F0B01010B11836E0BEC13F00AC10BF1C1
:1025300001010B3BF00E0B17F00E01010B1783503E
:102540000F0B01010B11836E0BEC13F00A0E01014E
:1025500001010C6F000E01010D6F0FEC12F0120063
:10256000000E010101010B1B000E010101010C1BFA
:10257000800E010101010D1B0BC111F10CC112F103
:102580000DC113F108C10EF109C10FF10AC110F11B
:10259000CCEC09F00EC108F10FC109F110C10AF12C
:1025A00000D0120083841AC11BF1F00E01011B1729
:1025B00083500F0B01011B11836E0BEC13F01AC13A
:1025C0001BF101011B3BF00E1B17F00E01011B1745
:1025D00083500F0B01011B11836E0BEC13F01200E3
:1025E00001011D6F000E010101011C6F01011D5150
:1025F000130E010101011C6501D001D001D00AD0E8
:10260000010101011C2B130E010101011C6501D008
:1026100001D0F6D712008396F0EC12F08386F0EC2E
:0A26200012F08396F0EC12F01200A5
:00000001FF
