:040800000CEF04F005
:10080800FACF2EF1FBCF2FF1E9CF30F10EED0DF03D
:1008180000EE00F010EE08F014EC04F01AEF08F007
:0E082800EE6AE550E150FCE1E250FAE1120008
:101000000054305F54696D652E432020202020203D
:1010100020202020200020202020202020202020F0
:101020002020202020202020202000A74A403BA66E
:1010300063D33100000E926E9368000E946E000E22
:10104000956E000E966E0101096F0F0EC16E0101C3
:10105000095167EC0DF00101096F000E010101015A
:101060000C6F0101095101010A6F000E010101011C
:101070000B6F01010A51B0EC0DF00101096F000E78
:1010800001010101006F01010951130E010101016C
:10109000006501D001D001D01BD0010E010101017A
:1010A0000025F66EF76A100EF722F86A000EF82295
:1010B00008000101F5CF1DF158EC0EF0010101010E
:1010C000002B130E01010101006501D001D0E5D70D
:1010D0000101096F000E010101010C6F01010951AD
:1010E00001010A6F010E010101010B6F01010A519B
:1010F000B0EC0DF00101096F000E01010101006F5C
:1011000001010951130E01010101006501D001D057
:1011100001D01BD0160E010101010025F66EF76A01
:10112000100EF722F86A000EF82208000101F5CF30
:101130001DF158EC0EF001010101002B130E01010D
:101140000101006501D001D0E5D7640E0101010164
:101150000F6F000E0101106FF2EC0DF0CD92010146
:10116000096F810ECD6E01010951CD809D809F8058
:10117000F28C0101096F4D0ECA6E01010951010186
:10118000096FEE0ECB6E01010951CA849D829F82C8
:10119000F28CF28E000E046E000E056E000E066ECE
:1011A000000E076E81A001D001D0CBD1D65004240F
:1011B00001010101016FD75005200101026F000EEE
:1011C00006200101036F000E07200101046FC80E05
:1011D000026E000E036E2D0EF66E100EF76E000EF0
:1011E000F86E0900F5CF00F00A00F5CF01F000D04D
:1011F00003500210D8A401D001D0FAD7C80E026E55
:10120000000E036E000E006E000E016E00D0035043
:101210000210D8A401D001D0FAD7D650042401017D
:101220000101056FD75005200101066F000E062051
:101230000101076F000E07200101086F0101096F0E
:10124000000E010101010C6F0101095101010A6F3A
:10125000010E010101010B6F01010A51B0EC0DF00B
:101260000101096F070E01010101106F0101095110
:1012700001010A6F0A0E010101010F6F01010A51FC
:1012800001010101015101010101055D010101019E
:101290000B6F010101010251010101010659010118
:1012A0000C6F010101010351010101010759010105
:1012B0000D6F0101010104510101010108590101F2
:1012C0000E6F86EC0BF0C80E026E000E036E2D0E34
:1012D000F66E100EF76E000EF86E0900F5CF00F0F6
:1012E0000A00F5CF01F000D003500210D8A401D0BD
:1012F00001D0FAD7C80E026E000E036E000E006E0B
:10130000000E016E00D003500210D8A401D001D00D
:10131000FAD7900E026E010E036E2D0EF66E100EB1
:10132000F76E000EF86E0900F5CF00F00A00F5CF59
:1013300001F000D003500210D8A401D001D0FAD798
:10134000900E026E010E036E000E006E000E016E16
:1013500000D003500210D8A401D001D0FAD7C80E93
:10136000026E000E036E000E006E000E016E00D0C5
:1013700003500210D8A401D001D0FAD7C80E026ED3
:10138000000E036E000E006E000E016E00D00350C2
:101390000210D8A401D001D0FAD7C80E026E000EF8
:1013A000036E2B0EF66E100EF76E000EF86E09002F
:1013B000F5CF00F00A00F5CF01F000D00350021085
:1013C000D8A401D001D0FAD7C80E026E000E036E69
:1013D000000E006E000E016E00D003500210D8A463
:1013E00001D001D0FAD7900E026E010E036E2D0EC1
:1013F000F66E100EF76E000EF86E0900F5CF00F0D5
:101400000A00F5CF01F000D003500210D8A401D09B
:1014100001D0FAD7900E026E010E036E000E006E20
:10142000000E016E00D003500210D8A401D001D0EC
:10143000FAD7900E026E010E036E310EF66E100E8C
:10144000F76E000EF86E0900F5CF00F00A00F5CF38
:1014500001F000D003500210D8A401D001D0FAD777
:10146000900E026E010E036E000E006E000E016EF5
:1014700000D003500210D8A401D001D0FAD7900EAA
:10148000026E010E036E000E006E000E016E00D0A3
:1014900003500210D8A401D001D0FAD7900E026EEA
:1014A000010E036E000E006E000E016E00D00350A0
:1014B0000210D8A401D001D0FAD7900E026E010E0E
:1014C000036E2F0EF66E100EF76E000EF86E09000A
:1014D000F5CF00F00A00F5CF01F000D00350021064
:1014E000D8A401D001D0FAD7900E026E010E036E7F
:1014F000000E006E000E016E00D003500210D8A442
:1015000001D001D0FAD7900E026E010E036E000ECC
:10151000006E000E016E00D003500210D8A401D05E
:1015200001D0FAD7900E026E010E036E000E006E0F
:10153000000E016E00D003500210D8A401D001D0DB
:10154000FAD730D60CEF04F001012B6F000E010129
:101550000101266F01012B510101010124AF01D0CE
:1015600001D018D001010101241F0101231F010135
:10157000221F0101216D000E0101222301012323FD
:101580000101242301012B6F010E01010101266FCE
:1015900001012B510101010120AF01D001D014D074
:1015A00001010101201F01011F1F01011E1F010177
:1015B0001D6D000E01011E2301011F2301012023C7
:1015C000010E01010101261B000E01010101276F1F
:1015D000000E0101286F000E0101296F000E0101AC
:1015E0002A6F01012451211122112311D8B401D0F5
:1015F00001D06BD001012B6F010E01010101256F9C
:1016000001012B510DD00101D890010121370101B9
:101610002237010123370101243701010101252B64
:101620000101010124AF01D001D0EDD70101D89013
:1016300001012737010128370101293701012A3724
:10164000010101012151010101011D5D01010101A2
:101650002251010101011E59010101012351010122
:1016600001011F590101010124510101010120590A
:10167000D8A001D001D01BD00101010121510101ED
:1016800001011D5F010101012251010101011E5BE8
:10169000010101012351010101011F5B0101010150
:1016A000245101010101205B010101012781010198
:1016B000D8900101243301012333010122330101B8
:1016C000213301010101252FB1D70101010126516B
:1016D000D8B401D001D010D0010101012A1F0101AD
:1016E000291F0101281F0101276D000E0101282378
:1016F0000101292301012A2327C11DF128C11EF15F
:1017000029C11FF12AC120F100D0120001010101FD
:101710000EAF01D001D01BD001011C6F2D0E0101B5
:1017200001011D6F01011C5158EC0EF00101010176
:101730000E1F01010D1F01010C1F01010B6D000E99
:1017400001010C2301010D2301010E230AD0010127
:101750001C6F200E010101011D6F01011C5158EC8D
:101760000EF001011C6F000E01010101116F01015A
:101770001C51090E01010101116501D001D001D0F8
:101780004ED00101120E010101011125E96EEA6A34
:101790000101010EEA220A0E01010101216F000E72
:1017A0000101226F000E0101236F000E0101246F61
:1017B0000BC11DF10CC11EF10DC11FF10EC120F1B5
:1017C0004AEC0CF0010101011D51EF6E0A0E0101FE
:1017D0000101216F000E0101226F000E0101236F34
:1017E000000E0101246F0BC11DF10CC11EF10DC1D2
:1017F0001FF10EC120F1A4EC0AF01DC10BF11EC1B6
:101800000CF11FC10DF120C10EF101010101112BDD
:10181000090E01010101116501D001D0B2D70FC13C
:1018200011F101010101116701D001D001D031D0C6
:1018300001010101105101010101116301D001D029
:101840000AD001011C6F2E0E010101011D6F010163
:101850001C5158EC0EF011C11CF1FF0E01011C27A8
:101860000101120E01011C25E96EEA6A0101010E57
:10187000EA22EF50300F010101011D6F58EC0EF00C
:1018800001010101110701010101116701D001D01E
:10189000CFD712000101276F000E01010101256F52
:1018A000010127510101010120AF01D001D018D061
:1018B00001010101201F01011F1F01011E1F010164
:1018C0001D6D000E01011E2301011F2301012023B4
:1018D0000101276F010E01010101256F010127514F
:1018E0000101010124AF01D001D010D0010101019B
:1018F000241F0101231F0101221F0101216D000E80
:101900000101222301012323010124230101245188
:10191000211122112311D8B401D001D05ED00101D0
:10192000276F010E01010101266F010127510DD022
:101930000101D8900101213701012237010123372C
:101940000101243701010101262B0101010124AF0E
:1019500001D001D0EDD701010101215101010101A7
:101960001D5D010101012251010101011E59010109
:1019700001012351010101011F59010101012451FC
:10198000010101012059D8A001D001D018D00101D6
:1019900001012151010101011D5F010101012251DC
:1019A000010101011E5B010101012351010101013E
:1019B0001F5B01010101245101010101205B0101B3
:1019C000D8900101243301012333010122330101A5
:1019D000213301010101262FBED70101010125514B
:1019E000D8B401D001D010D001010101201F0101A4
:1019F0001F1F01011E1F01011D6D000E01011E238D
:101A000001011F23010120231DC11DF11EC11EF173
:101A10001FC11FF120C120F100D012000600EACF43
:101A200031F1E1CF32F1E2CF33F1D9CF34F1DACF76
:101A300035F1F3CF36F1F4CF37F1F6CF38F1F7CFF8
:101A400039F1F8CF3AF19EA001D001D017D000C0F3
:101A50002CF101C02DF101012C1F2D1F2C4B2D2B22
:101A60002CC1CEFF2DC1CFFF01500010D8B401D042
:101A700001D002D0827001D082909E909EA201D0AF
:101A800001D00AD003500210D8B401D001D003D045
:101A90000206D8A003069E923AC1F8FF39C1F7FFAB
:101AA00038C1F6FF37C1F4FF36C1F3FF35C1DAFFA5
:101AB00034C1D9FF33C1E2FF32C1E1FF31C1EAFFD6
:101AC00030C1E9FF2FC1FBFF2EC1FAFF1100000E4C
:101AD000956E839201010B6F330E010101010D6FB1
:101AE00001010B5131EC0EF001010B6F320E0101BF
:101AF00001010D6F01010B5131EC0EF001010B6F73
:101B0000280E010101010D6F01010B5131EC0EF0A6
:101B100001010B6F0E0E010101010D6F01010B514F
:101B200031EC0EF001010B6F010E010101010D6F8F
:101B300001010B5131EC0EF001010B6F060E01019A
:101B400001010D6F01010B5131EC0EF0640E01012A
:101B500001010F6F000E0101106FF2EC0DF0120089
:101B6000010101010B6701D001D009D00101010180
:101B70000C51800F010101010D6F31EC0EF00101DC
:101B800001010B05D8A401D001D009D00101010148
:101B90000C51C00F010101010D6F31EC0EF001017C
:101BA00001010B51020AD8A401D001D009D00101D2
:101BB00001010C51940F010101010D6F31EC0EF088
:101BC000010101010B51030AD8A401D001D009D0B1
:101BD000010101010C51D40F010101010D6F31EC24
:101BE0000EF01200000E01010101116F000E010143
:101BF000126F26D0000E01010101136F000E0101CA
:101C0000146F690E01010101135D020E01011459E7
:101C1000D8A001D001D001D00FD001010101134B98
:101C2000142B690E01010101135D020E010114590B
:101C3000D8A001D001D0F1D701010101114B122B25
:101C4000010101010F5101010101115D01010101BA
:101C50001051010101011259D8A001D001D0CAD7F9
:101C6000120083940DC10EF1F00E01010E17835086
:101C70000F0B01010E11836E91EC0EF00DC10EF1F0
:101C800001010E3BF00E0E17F00E01010E178350EE
:101C90000F0B01010E11836E91EC0EF00A0E010183
:101CA00001010F6F000E0101106FF2EC0DF0120038
:101CB00083841DC11EF1F00E01011E1783500F0B0E
:101CC00001011E11836E91EC0EF01DC11EF1010188
:101CD0001E3BF00E1E17F00E01011E1783500F0B56
:101CE00001011E11836E91EC0EF012000101206FB4
:101CF000000E010101011F6F01012051130E0101AE
:101D000001011F6501D001D001D00AD001010101FC
:101D10001F2B130E010101011F6501D001D0F6D761
:101D20001200839676EC0EF0838676EC0EF08396A6
:061D300076EC0EF012003B
:00000001FF
