:040800000EEF08F0FF
:1010000000436F6D62696E6174696F6E204C6F632F
:101010006B2000000000010204080000000E926E28
:101020009368000E946E000E956E000E966E000191
:10103000DD6F0F0EC16E0001DD5124EC11F00001D7
:10104000DD6F000E00010001E06F0001DD510001C5
:10105000DE6F000E00010001DF6F0001DE516DEC5C
:1010600011F0000E00010001DB6F000E0001DC6FCB
:10107000140E00010001DB5D000E0001DC59D8A058
:1010800001D001D001D020D0010E00010001DB25EC
:10109000F66EF76A100EF722F86A000EF8220800C2
:1010A0000001F5CFF1F0BBEC12F000010001DB4BC9
:1010B000DC2B140E00010001DB5D000E0001DC5989
:1010C000D8A001D001D0E0D7F40E00010001E36FF9
:1010D000010E0001E46FAFEC11F092680F0E966EF6
:1010E0000001DD6F850EC06E0001DD510001DD6F76
:1010F000070EC16E0001DD51010EC26E000E00012F
:101100000001DB6F000E0001DC6F000E000100012A
:10111000D56F000E0001D66F000E00010001D76FE1
:10112000000E0001D86F000E00010001D96F000E03
:101130000001DA6F000E00010001CF6F000E000108
:10114000D06F0001DD6F000E00010001DF6F0001B4
:10115000DD5129EC12F0DFC0DFF0E0C0E0F0EEEC92
:1011600011F0DFC0DFF0E0C0E0F0E1C0E1F09A0E86
:1011700000010001E26F4C0E00010001E36F420E1E
:1011800000010001E46F3FEC0DF0DFC0DFF0E0C0D4
:10119000E0F0E1C0E1F0000E00010001E26F800E1E
:1011A00000010001E36F3F0E00010001E46FC0EC9D
:1011B0000AF0DFC0DFF0E0C0E0F0E1C0E1F08EEC6B
:1011C0000FF0DFC0D1F0E0C0D2F081A001D001D09B
:1011D00015D0D9C0CFF0DAC0D0F0D7C0D9F0D8C080
:1011E000DAF0D5C0D7F0D6C0D8F0D1C0D5F0D2C093
:1011F000D6F000D081B001D001D0FCD781A201D0BF
:1012000001D0E7D000010001D751020AD811000E29
:10121000D8B4010E00010001E16F0001E26B000192
:101220000001D505D611000ED8B4010E0001000151
:10123000DF6F0001E06B61EC12F0DFC0DFF0E0C0B7
:10124000E0F000010001D951030ADA11000ED8B410
:10125000010E00010001E16F0001E26B61EC12F090
:101260000001E051DF11D8B401D001D09DD0000EB3
:1012700000010001DB6F000E0001DC6F640E000155
:101280000001DB5D000E0001DC59D8A001D001D0C7
:1012900001D037D0010E00010001D325000100016B
:1012A000D36F000E00010001D4210001D46FD3C020
:1012B000DDF0030E0001DD17160E0001DD25F66ED0
:1012C000F76A100EF722F86A000EF8220800F5CF30
:1012D00082FF0A0E00010001E36F000E0001E46FBF
:1012E000AFEC11F000010001DB4BDC2B640E0001C0
:1012F0000001DB5D000E0001DC59D8A001D001D057
:10130000C9D7D00E00010001E36F070E0001E46FA2
:10131000AFEC11F0000E00010001DB6F000E0001C8
:10132000DC6F640E00010001DB5D000E0001DC5982
:10133000D8A001D001D001D037D0FF0E00010001AC
:10134000D32500010001D36FFF0E00010001D4215D
:101350000001D46FD3C0DDF0030E0001DD17160EBF
:101360000001DD25F66EF76A100EF722F86A000E0E
:10137000F8220800F5CF82FF0A0E00010001E36F9A
:10138000000E0001E46FAFEC11F000010001DB4B37
:10139000DC2B640E00010001DB5D000E0001DC5956
:1013A000D8A001D001D0C9D7000E00010001D56F2F
:1013B000000E0001D66F000E00010001D76F000E75
:1013C0000001D86F000E00010001D96F000E00016E
:1013D000DA6F0001DD6F000E00010001E06F000117
:1013E000DD510001DE6F010E00010001DF6F000121
:1013F000DE516DEC11F00001DD6F000E0001000107
:10140000E46F0001DD510001DE6F020E00010001FA
:10141000E36F0001DE5100010001D1C0DFF00001E7
:101420000001D2C0E0F00001000E0001E0BFFF0E9D
:101430000001E16F0001E26F06EC0EF00001DD6FCC
:10144000040E00010001E06F0001DD510001DE6FBC
:10145000010E00010001DF6F0001DE516DEC11F0A3
:101460000001DD6F000E00010001E46F0001DD519D
:101470000001DE6F020E00010001E36F0001DE518A
:1014800000010001D5C0DFF000010001D6C0E0F08E
:101490000001000E0001E0BFFF0E0001E16F00013E
:1014A000E26F06EC0EF00001DD6F080E0001000196
:1014B000E06F0001DD510001DE6F010E000100014F
:1014C000DF6F0001DE516DEC11F00001DD6F000EE9
:1014D00000010001E46F0001DD510001DE6F020E2A
:1014E00000010001E36F0001DE5100010001D7C0DF
:1014F000DFF000010001D8C0E0F00001000E0001A3
:10150000E0BFFF0E0001E16F0001E26F06EC0EF09C
:101510000001DD6F0C0E00010001E06F0001DD51E4
:101520000001DE6F010E00010001DF6F0001DE51DE
:101530006DEC11F00001DD6F000E00010001E46FA1
:101540000001DD510001DE6F020E00010001E36FBA
:101550000001DE5100010001D9C0DFF000010001EF
:10156000DAC0E0F00001000E0001E0BFFF0E000154
:10157000E16F0001E26F06EC0EF0E3D500EF04F03E
:1015800000D00001E90E00010001EF6F0001000E24
:101590000001F06F0001DF0E00010001ED6F00019E
:1015A000000E0001EE6FCFEC10F000010001E76FBC
:1015B00000010001E96701D001D007D0E2C0DFF0EF
:1015C000E3C0E0F0E4C0E1F077D10001E80E0001F3
:1015D0000001EF6F0001000E0001F06F0001E20E4C
:1015E00000010001ED6F0001000E0001EE6FCFEC75
:1015F00010F000010001E56F00010001E851D8B4CE
:1016000001D001D032D10001EA6F060E00010001C5
:10161000E66F0001EA5100010001E85100010001FC
:10162000E96101D001D04FD000010001E951000172
:101630000001E85D0001EA6F190E0001EA5DD8A023
:1016400001D001D011D0000E00010001DF6F000EAB
:1016500000010001E06F000E00010001E16FE8C031
:10166000E9F0E5C0E7F02ED00001D8900001E237A4
:101670000001E3370001E43700010001E807000141
:101680000001E85100010001E919D8B401D001D0EE
:1016900004D000010001E62FE7D70BD00001D8905D
:1016A0000001E1330001E0330001DF3300010001FC
:1016B000E92B00010001E85100010001E96301D0BC
:1016C00001D0ECD754D000010001E9510001000124
:1016D000E819D8B401D001D04AD000010001E85186
:1016E00000010001E95D0001EA6F190E0001EA5DE9
:1016F000D8A001D001D00DD0000E00010001E26F92
:10170000000E00010001E36F000E00010001E46F14
:101710002ED00001D8900001DF370001E037000132
:10172000E13700010001E90700010001E851000173
:101730000001E919D8B401D001D004D000010001A2
:10174000E62FE7D70BD00001D8900001E433000169
:10175000E3330001E23300010001E82B0001000146
:10176000E85100010001E96301D001D0ECD700018C
:101770000001E751D8B401D001D018D0FF0E00010C
:101780000001DF1BFF0E00010001E01BFF0E000146
:101790000001E11B010E00010001DF27000E000126
:1017A0000001E023000E00010001E123000100011F
:1017B000E551D8B401D001D018D0FF0E00010001CE
:1017C000E21BFF0E00010001E31BFF0E0001000100
:1017D000E41B010E00010001E227000E00010001E0
:1017E000E323000E00010001E4230001EA6F000E74
:1017F00000010001E76F0001EA5100010001E25120
:1018000000010001DF2700010001E3510001000198
:10181000E02300010001E45100010001E123000187
:101820000001E1AF01D001D020D0FF0E0001000186
:10183000DF1BFF0E00010001E01BFF0E0001000195
:10184000E11B010E00010001DF27000E0001000175
:10185000E023000E00010001E1230001EA6F010E08
:1018600000010001E76F0001EA51E9C0EFF000015B
:10187000DF0E00010001ED6F0001000E0001EE6FB0
:1018800030EC10F000010001E751D8B401D001D0D4
:101890000CD0000E00010001DF1B000E0001000152
:1018A000E01B800E00010001E11BDFC0DFF0E0C0A3
:1018B000E0F0E1C0E1F000D012000001FF6F000E87
:1018C00000010001FA6F0001FF5100010001F8AFB3
:1018D00001D001D018D000010001F81F0001F71F4E
:1018E0000001F61F0001F56D000E0001F623000156
:1018F000F7230001F8230001FF6F010E0001000132
:10190000FA6F0001FF5100010001F4AF01D001D0D6
:1019100014D000010001F41F0001F31F0001F21FA9
:101920000001F16D000E0001F2230001F32300011C
:10193000F423010E00010001FA1B000E000100015A
:10194000FB6F000E0001FC6F000E0001FD6F000E2A
:101950000001FE6F0001F851F511F611F711D8B42E
:1019600001D001D06BD00001FF6F010E000100011A
:10197000F96F0001FF510DD00001D8900001F5373B
:101980000001F6370001F7370001F83700010001C8
:10199000F92B00010001F8AF01D001D0EDD7000113
:1019A000D8900001FB370001FC370001FD37000132
:1019B000FE3700010001F55100010001F15D000159
:1019C0000001F65100010001F25900010001F75138
:1019D00000010001F35900010001F851000100016C
:1019E000F459D8A001D001D01BD000010001F5515D
:1019F00000010001F15F00010001F651000100014A
:101A0000F25B00010001F75100010001F35B0001EE
:101A10000001F85100010001F45B00010001FB81AD
:101A20000001D8900001F8330001F7330001F633CC
:101A30000001F53300010001F92FB1D700010001C9
:101A4000FA51D8B401D001D010D000010001FE1F1E
:101A50000001FD1F0001FC1F0001FB6D000E0001D5
:101A6000FC230001FD230001FE23FBC0F1F0FCC0BC
:101A7000F2F0FDC0F3F0FEC0F4F000D01200000E52
:101A800000010001E96F000E00010001EA6F000E85
:101A900000010001EB6F0001E70E00010001EF6F94
:101AA0000001000E0001F06F0001DF0E00010001D7
:101AB000ED6F0001000E0001EE6FCFEC10F00001A1
:101AC0000001E66F00010001E76701D001D007D0F7
:101AD000E9C0DFF0EAC0E0F0EBC0E1F096D0000131
:101AE000E50E00010001EF6F0001000E0001F06F34
:101AF0000001E20E00010001ED6F0001000E000187
:101B0000EE6FCFEC10F000010001E86F0001000162
:101B1000E56701D001D007D0E9C0DFF0EAC0E0F00E
:101B2000EBC0E1F072D000010001E551890F000126
:101B30000001E75F00010001E85100010001E61B20
:101B40000001EC6F180E00010001E86F0001EC517C
:101B50000001D8900001E9370001EA370001EB37B6
:101B600000010001E25100010001DF5D0001000100
:101B7000E35100010001E05900010001E4510001BE
:101B80000001E159D8A001D001D015D00001000119
:101B9000E25100010001DF5F00010001E35100019B
:101BA0000001E05B00010001E45100010001E15B84
:101BB00000010001E9810001D8900001DF37000138
:101BC000E0370001E13700010001E82FC1D7E7C08D
:101BD000EFF00001E90E00010001ED6F0001000EC1
:101BE0000001EE6F30EC10F000010001E651D8B4B6
:101BF00001D001D003D000010001EB8FE9C0DFF07C
:101C0000EAC0E0F0EBC0E1F000D0120000010001FA
:101C1000E2AF01D001D01BD00001F06F2D0E00010A
:101C20000001F16F0001F051BBEC12F00001000166
:101C3000E21F0001E11F0001E01F0001DF6D000E47
:101C40000001E0230001E1230001E2230AD00001AA
:101C5000F06F200E00010001F16F0001F051BBECAC
:101C600012F00001F06F000E00010001E56F0001AD
:101C7000F051090E00010001E56501D001D001D04D
:101C80004ED00001E60E00010001E525E96EEA6A8A
:101C90000001000EEA220A0E00010001F56F000E9D
:101CA0000001F66F000E0001F76F000E0001F86FE3
:101CB000DFC0F1F0E0C0F2F0E1C0F3F0E2C0F4F018
:101CC000CAEC0EF000010001F151EF6E0A0E0001A6
:101CD0000001F56F000E0001F66F000E0001F76FB6
:101CE000000E0001F86FDFC0F1F0E0C0F2F0E1C0DB
:101CF000F3F0E2C0F4F05DEC0CF0F1C0DFF0F2C004
:101D0000E0F0F3C0E1F0F4C0E2F000010001E52BE7
:101D1000090E00010001E56501D001D0B2D7E3C092
:101D2000E5F000010001E56701D001D001D031D01C
:101D300000010001E45100010001E56301D001D080
:101D40000AD00001F06F2E0E00010001F16F0001BA
:101D5000F051BBEC12F0E5C0F0F0FF0E0001F027EF
:101D60000001E60E0001F025E96EEA6A0001000EAE
:101D7000EA22EF50300F00010001F16FBBEC12F0CE
:101D800000010001E50700010001E56701D001D075
:101D9000CFD712000001FB6F000E00010001F96FA8
:101DA0000001FB5100010001F4AF01D001D018D0B7
:101DB00000010001F41F0001F31F0001F21F0001E8
:101DC000F16D000E0001F2230001F3230001F42362
:101DD0000001FB6F010E00010001F96F0001FB51D2
:101DE00000010001F8AF01D001D010D000010001C6
:101DF000F81F0001F71F0001F61F0001F56D000E2E
:101E00000001F6230001F7230001F8230001F85137
:101E1000F511F611F711D8B401D001D05ED0000150
:101E2000FB6F010E00010001FA6F0001FB510DD0A4
:101E30000001D8900001F5370001F6370001F737AF
:101E40000001F83700010001FA2B00010001F8AF92
:101E500001D001D0EDD700010001F55100010001D2
:101E6000F15D00010001F65100010001F25900018D
:101E70000001F75100010001F35900010001F85180
:101E800000010001F459D8A001D001D018D0000100
:101E90000001F55100010001F15F00010001F65160
:101EA00000010001F25B00010001F7510001000197
:101EB000F35B00010001F85100010001F45B000137
:101EC000D8900001F8330001F7330001F633000128
:101ED000F53300010001FA2FBED700010001F951CE
:101EE000D8B401D001D010D000010001F41F0001CE
:101EF000F31F0001F21F0001F16D000E0001F2233B
:101F00000001F3230001F423F1C0F1F0F2C0F2F07C
:101F1000F3C0F3F0F4C0F4F000D012000001E40EBE
:101F200000010001EF6F0001000E0001F06F0001E1
:101F3000DF0E00010001ED6F0001000E0001EE6FE9
:101F4000CFEC10F000010001E36F00010001DF5150
:101F500000010001E56F00010001E0510001E66FA2
:101F60000001E1510001E76F0001E86B8E0E0001F6
:101F70000001E45F00010001E4AF01D001D026D0F0
:101F800000010001E451800A8F0FD8B001D001D0C8
:101F90000ED0000E00010001DF6F000E0001E06FA7
:101FA000000E0001E16F000E0001E26F58D0000149
:101FB000D8900001E8330001E7330001E633000167
:101FC000E53300010001E43FF2D729D01F0E0001E4
:101FD0000001E46501D001D00ED0000E0001000127
:101FE000DF6F000E0001E06F000E0001E16F000ED8
:101FF0000001E26F34D00DD00001D8900001E53728
:102000000001E6370001E7370001E8370001000171
:10201000E40700010001E46701D001D0EDD7000121
:102020000001E351D8B401D001D010D0000100016B
:10203000E81F0001E71F0001E61F0001E56D000E2B
:102040000001E6230001E7230001E823E5C0DFF0FB
:10205000E6C0E0F0E7C0E1F0E8C0E2F000D0120036
:1020600000010001EF51D8B401D001D00BD0EDC078
:10207000E9FFEEC0EAFFEE50EE10ED10D8A401D05B
:1020800001D00CD0EDC0E9FFEEC0EAFF000EEE6E0D
:10209000000EEE6E000EED6EED5280D00DD0000100
:1020A0000001EF2BEDC0E9FFEEC0EAFFEC52EC526D
:1020B000D890ED32ED32EF32EDC0E9FFEEC0EAFF2D
:1020C000EE52EE52FE0EED14D8A401D001D0E7D7A7
:1020D00016D000010001EF2BEDC0E9FFEEC0EAFFD2
:1020E000EE2A000EEE22ED22ED52EDC0E9FFEEC029
:1020F000EAFFEC52EC52D890ED32ED32EF32EDC007
:10210000E9FFEEC0EAFFEE52EE52FF0EED14D8A446
:1021100001D001D0DED70CD000010001EF07EDC0E7
:10212000E9FFEEC0EAFFD890EE36EE36ED36ED521E
:10213000EDC0E9FFEEC0EAFFEECFF0F0EECFF1F038
:10214000EECFF2F00001F1AF01D001D0E5D70001F0
:102150000001EFB101D001D00BD0EDC0E9FFEEC01E
:10216000EAFFFF0EEE167F0EEE16FF0EED16ED5295
:102170000001D890EF3300010001EF510001F26F30
:10218000F16BF06BEDC0E9FFEEC0EAFF0001F0512A
:10219000EE12F151EE12F251ED12ED521200EDC0BD
:1021A000E9FFEEC0EAFF010EEB34020EEB34000152
:1021B0000001F16FEFC0E9FFF0C0EAFF0001F1C0DC
:1021C000EFFF00010001F16701D001D00DD0EDC09B
:1021D000E9FFEEC0EAFF000EEE6E000EEE6E000E9E
:1021E000ED6EED52000E2FD00001F26F000E0001D7
:1021F0000001F16F0001F251EDC0E9FFEEC0EAFF0E
:10220000010EEB8EEDC0E9FFEEC0EAFFEECFF2F07B
:10221000EECFF3F0EECFF4F00001F4AF01D001D037
:1022200003D000010001F12BEDC0E9FFEEC0EAFF91
:10223000FF0EEE16FF0EEE16000EED16ED5200012B
:102240000001F15100D01200000E956E8392000142
:10225000DF6F330E00010001E16F0001DF5194ECEC
:1022600012F00001DF6F320E00010001E16F00018A
:10227000DF5194EC12F00001DF6F280E0001000125
:10228000E16F0001DF5194EC12F00001DF6F0E0EE0
:1022900000010001E16F0001DF5194EC12F0000138
:1022A000DF6F010E00010001E16F0001DF5194ECCE
:1022B00012F00001DF6F060E00010001E16F000166
:1022C000DF5194EC12F0640E00010001E36F000E88
:1022D0000001E46FAFEC11F0120000010001DF67B4
:1022E00001D001D009D000010001E051800F0001B0
:1022F0000001E16F94EC12F000010001DF05D8A4A9
:1023000001D001D009D000010001E051C00F00014F
:102310000001E16F94EC12F000010001DF51020AAC
:10232000D8A401D001D009D000010001E051940FE0
:1023300000010001E16F94EC12F000010001DF5197
:10234000030AD8A401D001D009D000010001E05156
:10235000D40F00010001E16F94EC12F01200000EA6
:1023600000010001E56F000E0001E66F26D0000EAF
:1023700000010001E76F000E0001E86F690E000127
:102380000001E75D020E0001E859D8A001D001D09C
:1023900001D00FD000010001E74BE82B690E0001CE
:1023A0000001E75D020E0001E859D8A001D001D07C
:1023B000F1D700010001E54BE62B00010001E351DC
:1023C00000010001E55D00010001E4510001000190
:1023D000E659D8A001D001D0CAD7120000010001EF
:1023E000E051DF11D8A401D001D00DD0000E0001C2
:1023F0000001DF6F000E00010001E06F000E000120
:102400000001E16F25D000010001DFC0E2F0000112
:102410000001E0C0E3F000010001E46B0001E56FA2
:102420008E0E00010001EF6F0001E5510001E20E88
:1024300000010001ED6F0001000E0001EE6F30ECB5
:1024400010F0E2C0DFF0E3C0E0F0E4C0E1F000D063
:10245000120000010001DF510F0B00010001DF6FCE
:10246000DFC0E2F0D8900001E237D8900001E237F7
:102470000001E229C26E0001E26F000E00010001BE
:10248000E16F0001E251130E00010001E16501D08E
:1024900001D001D00AD000010001E12B130E000190
:1024A0000001E16501D001D0F6D7C28200D0C2B2EE
:1024B00001D001D0FCD7C3CFDFF0C4CFE0F000D013
:1024C0001200000E00010001E36F000E0001E46F36
:1024D00000010001DFA101D001D00CD000010001FA
:1024E000E15100010001E32700010001E251000178
:1024F0000001E4230001D8900001E1370001E23738
:102500000001D8900001E0330001DF330001000139
:10251000E051DF11D8A401D001D0DAD7E3C0DFF059
:10252000E4C0E0F000D012008394E1C0E2F0F00ECD
:102530000001E21783500F0B0001E211836EF4ECEF
:1025400012F0E1C0E2F00001E23BF00EE217F00E03
:102550000001E21783500F0B0001E211836EF4ECCF
:1025600012F00A0E00010001E36F000E0001E46F9B
:10257000AFEC11F012008384F1C0F2F0F00E000114
:10258000F21783500F0B0001F211836EF4EC12F07E
:10259000F1C0F2F00001F23BF00EF217F00E000174
:1025A000F21783500F0B0001F211836EF4EC12F05E
:1025B00012000001F46F000E00010001F36F000132
:1025C000F451130E00010001F36501D001D001D0D8
:1025D0000AD000010001F32B130E00010001F36586
:1025E00001D001D0F6D712008396D9EC12F0838681
:0C25F000D9EC12F08396D9EC12F0120026
:00000001FF
